:0400000007EF00F016
:0A000800018266ED0AF06AEF10F0C5
:10100000003738392F3435362A3132332D23303DED
:051010002B2569000022
:101016002D50800B366E2D502D24386E2CAE16EFCB
:1010260008F018EF08F019EF08F038803850D8B4F7
:101036001FEF08F021EF08F035EF08F03828D8A4A4
:1010460027EF08F029EF08F031EF08F0000E2A6EBE
:10105600000E2B6E000E2C6E000E2D6E2C8E2D6A41
:101066003DEF08F0000E2A6E000E2B6E000E2C6E61
:10107600000E2D6E3150800B376E36503718D8B4AF
:1010860047EF08F049EF08F04AEF08F0368C315088
:101096003124376E30AE52EF08F054EF08F055EFBA
:1010A60008F037803750D8B45BEF08F05DEF08F0F2
:1010B60071EF08F03728D8A463EF08F065EF08F061
:1010C6006DEF08F0000E2E6E000E2F6E000E306EC5
:1010D600000E316E308E316A79EF08F0000E2E6EFA
:1010E600000E2F6E000E306E000E316E3850375CDB
:1010F600D8B080EF08F082EF08F0A9EF08F036AC20
:1011060087EF08F089EF08F08BEF08F0800E361AAB
:1011160038C039F037C038F039C037F02AC039F056
:101126002EC02AF039C02EF02BC039F02FC02BF07C
:1011360039C02FF02CC039F030C02CF039C030F057
:101146002DC039F031C02DF039C031F0396A385030
:1011560037C032F0336A325E000E335A33BEBDEF0B
:1011660008F0335009E11A0E325CD8A0BDEF08F042
:10117600BFEF08F0F6EF08F02A502B102C102D10B8
:10118600D8A4C8EF08F0CBEF08F0010ECCEF08F0BA
:10119600000E396E000E2A6E000E2B6E000E2C6E9F
:1011A600000E2D6E37C038F0FFEF08F039A0DEEFE5
:1011B60008F0E0EF08F0E6EF08F0D89039300109C2
:1011C600396EE8EF08F0D89039322AA0EDEF08F032
:1011D600EFEF08F0F0EF08F0398E2D342D322C3277
:1011E6002B322A32382A3750385CD8A0FDEF08F067
:1011F600FFEF08F0D9EF08F036BC04EF09F006EF70
:1012060009F046EF09F03850D8A40CEF09F00EEFBC
:1012160009F018EF09F0000E2A6E000E2B6E000E74
:101226002C6E000E2D6E65EF0AF02E502A262F50DA
:101236002B2230502C2231502D222DA025EF09F0E3
:1012460027EF09F0D3EF09F039A02CEF09F02EEFC4
:1012560009F034EF09F0D89039300109396E36EFCC
:1012660009F0D89039322AA03BEF09F03DEF09F09A
:101276003EEF09F0398E2D342D322C322B322A32A4
:10128600382AD3EF09F02E502A5C2F502B583050B5
:101296002C582D50800A326E3150800A3258D8B000
:1012A60057EF09F059EF09F084EF09F02A502E5C48
:1012B600326E2B502F58336E2C503058346E2D50C2
:1012C6003158356EFF0E32242A6EFF0E33202B6EF8
:1012D600FF0E34202C6EFF0E35202D6E800E361A32
:1012E600396C3950D8A47AEF09F07CEF09F08CEF0D
:1012F60009F0010E2A26000E2B222C222D228CEF1D
:1013060009F02E502A5E2F502B5A30502C5A31504D
:101316002D5A2A502B102C102D10D8A495EF09F019
:1013260097EF09F0CCEF09F03950D8A49DEF09F0FA
:101336009FEF09F0CCEF09F0000E2A6E000E2B6E1F
:10134600000E2C6E000E2D6E65EF0AF0D8902A3630
:101356002B362C362D3639AEB3EF09F0B5EF09F042
:10136600B6EF09F02A8039A0BBEF09F0BDEF09F00E
:10137600C1EF09F0D8803936C3EF09F0D890393675
:101386003850D8B4C9EF09F0CBEF09F0CCEF09F02B
:1013960038062CAED1EF09F0D3EF09F0A9EF09F02A
:1013A600376A39AED9EF09F0DBEF09F0F3EF09F050
:1013B60039C032F07F0E3216D8B4E4EF09F0E6EF0A
:1013C60009F0EAEF09F0010E376EF3EF09F02AA0F3
:1013D600EFEF09F0F1EF09F0F3EF09F0E6EF09F0AE
:1013E6003750D8B4F9EF09F0FBEF09F026EF0AF011
:1013F600010E2A26000E2B222C222D222DA006EFCE
:101406000AF008EF0AF026EF0AF02AC032F02BC0E5
:1014160033F02CC034F02DC035F03534353234324B
:101426003332323232C02AF033C02BF034C02CF0C3
:1014360035C02DF03828D8B423EF0AF025EF0AF08E
:1014460026EF0AF0382A3828D8B42CEF0AF02EEF07
:101456000AF036EF0AF03850D8A434EF0AF036EF27
:101466000AF047EF0AF0000E2A6E000E2B6E000EF1
:101476002C6E000E2D6E3850D8A444EF0AF046EFBD
:101486000AF047EF0AF0366A38A04CEF0AF04EEF42
:101496000AF051EF0AF02C8E52EF0AF02C9ED890EB
:1014A60038302D6E36AE5AEF0AF05CEF0AF05DEF7B
:1014B6000AF02D8E2AC02AF02BC02BF02CC02CF05F
:1014C6002DC02DF012000600F2A86CEF0AF06EEFA8
:1014D6000AF077EF0AF0F2A273EF0AF075EF0AF05E
:1014E60077EF0AF04FEC11F0F0A67CEF0AF07EEFF2
:1014F6000AF087EF0AF0F0A083EF0AF085EF0AF012
:1015060087EF0AF04DEC11F0F0A88CEF0AF08EEFA1
:101516000AF097EF0AF0F0A293EF0AF095EF0AF0BF
:1015260097EF0AF04BEC11F0F2A69CEF0AF09EEF53
:101536000AF0B8EF0AF0F2A0A3EF0AF0A5EF0AF05E
:10154600B8EF0AF081A8AAEF0AF0ACEF0AF0B8EFFC
:101556000AF07E04D8A4B2EF0AF0B4EF0AF0B8EFAE
:101566000AF07E6A000E45EC11F0F2A6BDEF0AF015
:10157600BFEF0AF0D9EF0AF0F2A0C4EF0AF0C6EF07
:101586000AF0D9EF0AF081B8CBEF0AF0CDEF0AF0F6
:10159600D9EF0AF07E04D8A4D3EF0AF0D5EF0AF00B
:1015A600D9EF0AF07E6A010E45EC11F0F2A6DEEFE5
:1015B6000AF0E0EF0AF0FAEF0AF0F2A0E5EF0AF01F
:1015C600E7EF0AF0FAEF0AF081AAECEF0AF0EEEF85
:1015D6000AF0FAEF0AF07D04D8A4F4EF0AF0F6EF69
:1015E6000AF0FAEF0AF07D6A000E43EC11F0F2A65B
:1015F600FFEF0AF001EF0BF01CEF0BF0F2A006EF85
:101606000BF008EF0BF01CEF0BF081BA0DEF0BF0AF
:101616000FEF0BF01CEF0BF07D50D8A415EF0BF07D
:1016260017EF0BF01CEF0BF0010E7D6E010E43EC75
:1016360011F0F2A621EF0BF023EF0BF03DEF0BF0CC
:10164600F2A028EF0BF02AEF0BF03DEF0BF081AC88
:101656002FEF0BF031EF0BF03DEF0BF07C04D8A42D
:1016660037EF0BF039EF0BF03DEF0BF07C6A000E15
:1016760041EC11F0F2A642EF0BF044EF0BF05FEFF6
:101686000BF0F2A049EF0BF04BEF0BF05FEF0BF016
:1016960081BC50EF0BF052EF0BF05FEF0BF07C507C
:1016A600D8A458EF0BF05AEF0BF05FEF0BF0010EDA
:1016B6007C6E010E41EC11F0F2A664EF0BF066EFC2
:1016C6000BF080EF0BF0F2A06BEF0BF06DEF0BF071
:1016D60080EF0BF081AE72EF0BF074EF0BF080EF42
:1016E6000BF07B04D8A47AEF0BF07CEF0BF080EFC5
:1016F6000BF07B6A000E3FEC11F0F2A685EF0BF0C3
:1017060087EF0BF0A2EF0BF0F2A08CEF0BF08EEF51
:101716000BF0A2EF0BF081BE93EF0BF095EF0BF001
:10172600A2EF0BF07B50D8A49BEF0BF09DEF0BF0D4
:10173600A2EF0BF0010E7B6E010E3FEC11F09DAC9B
:10174600A7EF0BF0A9EF0BF0B2EF0BF09EACAEEFEC
:101756000BF0B0EF0BF0B2EF0BF057EC11F0F2AA72
:10176600B7EF0BF0B9EF0BF0C2EF0BF0F2A4BEEF40
:101776000BF0C0EF0BF0C2EF0BF02CEC11F09DA0BC
:10178600C7EF0BF0C9EF0BF0D2EF0BF09EA0CEEF38
:101796000BF0D0EF0BF0D2EF0BF026EC11F09DA280
:1017A600D7EF0BF0D9EF0BF0E2EF0BF09EA2DEEFD6
:1017B6000BF0E0EF0BF0E2EF0BF038EC11F0A0A22B
:1017C600E7EF0BF0E9EF0BF0F2EF0BF0A1A2EEEF73
:1017D6000BF0F0EF0BF0F2EF0BF020EC11F09DA404
:1017E600F7EF0BF0F9EF0BF002EF0CF09EA4FEEF13
:1017F6000BF000EF0CF002EF0CF055EC11F0A0A08E
:1018060007EF0CF009EF0CF012EF0CF0A1A00EEFB1
:101816000CF010EF0CF012EF0CF053EC11F09DA849
:1018260017EF0CF019EF0CF022EF0CF09EA81EEF4C
:101836000CF020EF0CF022EF0CF051EC11F09DAA09
:1018460027EF0CF029EF0CF032EF0CF09EAA2EEFEA
:101856000CF030EF0CF032EF0CF05BEC11F09DA6C3
:1018660037EF0CF039EF0CF042EF0CF09EA63EEF8E
:101876000CF040EF0CF042EF0CF05AEC11F09DA684
:1018860047EF0CF049EF0CF052EF0CF09EA64EEF2E
:101896000CF050EF0CF052EF0CF047EC11F0A0A654
:1018A60057EF0CF059EF0CF062EF0CF0A1A65EEFCB
:1018B6000CF060EF0CF062EF0CF049EC11F00192C5
:1018C60011001450800B216E14501424286E13AE90
:1018D6006FEF0CF071EF0CF072EF0CF028802850CF
:1018E600D8B478EF0CF07AEF0CF08EEF0CF02828D5
:1018F600D8A480EF0CF082EF0CF08AEF0CF0000E0B
:10190600116E000E126E000E136E000E146E138E04
:10191600146A96EF0CF0000E116E000E126E000E99
:10192600136E000E146E1850800B211A18501824CE
:10193600296E17AEA1EF0CF0A3EF0CF0A4EF0CF09C
:1019460029802950D8B4AAEF0CF0ACEF0CF0C0EF08
:101956000CF02928D8A4B2EF0CF0B4EF0CF0BCEFD1
:101966000CF0000E156E000E166E000E176E000EB1
:10197600186E178E186AC8EF0CF0000E156E000E62
:10198600166E000E176E000E186E155016101710F4
:101996001810D8A4D1EF0CF0D3EF0CF0EBEF0CF04D
:1019A600000E116E000E126E000E136E000E146EF7
:1019B600800E13127F0E14122150141211C011F052
:1019C60012C012F013C013F014C014F02AEF0EF078
:1019D6002850D8A4F1EF0CF0F3EF0CF0FDEF0CF06B
:1019E600000E116E000E126E000E136E000E146EB7
:1019F6002AEF0EF0295028C019F01A6A195E000E57
:101A06001A5A7F0E1924226E000E1A20236E11C058
:101A16001DF012C01EF013C01FF014C020F0000EFF
:101A2600116E000E126E000E136E000E146E000E76
:101A3600246E000E256E000E266E000E276E296A95
:101A46005DEF0DF02950D8B42BEF0DF02DEF0DF012
:101A560044EF0DF0D8901D361E361F362036D8902E
:101A6600113612361336143627AE3CEF0DF03EEF24
:101A76000DF03FEF0DF01180D8902436253626362E
:101A8600273615501D5C16501E5817501F581850F3
:101A96002058D8A051EF0DF053EF0DF05CEF0DF08C
:101AA600278C15501D5E16501E5A17501F5A185077
:101AB600205A292A190E296463EF0DF065EF0DF0FF
:101AC60025EF0DF01D501E101F102010D8B46EEF1C
:101AD6000DF070EF0DF088EF0DF0248088EF0DF01B
:101AE600D890113612361336143627AE7DEF0DF028
:101AF6007FEF0DF080EF0DF01180D890243625365B
:101B0600263627362206D8A0230613AE8DEF0DF013
:101B16008FEF0DF073EF0DF0296A27AE95EF0DF0FC
:101B260097EF0DF0BBEF0DF0FF0E2414196EFF0EAC
:101B360025141A6EFF0E26141B6E7F0E27141C6EBC
:101B460019501A101B101C10D8B4ACEF0DF0AEEFE4
:101B56000DF0B2EF0DF0010E296EBBEF0DF011A0E6
:101B6600B7EF0DF0B9EF0DF0BBEF0DF0AEEF0DF0E6
:101B76002950D8B4C1EF0DF0C3EF0DF0E7EF0DF02B
:101B8600010E1126000E12221322142214A0CEEFEB
:101B96000DF0D0EF0DF0E7EF0DF011C019F012C007
:101BA6001AF013C01BF014C01CF01C341C321B327C
:101BB6001A32193219C011F01AC012F01BC013F0F4
:101BC6001CC014F0224A232A23BEF2EF0DF0235044
:101BD60008E12228D8A0F2EF0DF0F4EF0DF0FFEFA8
:101BE6000DF0000E236E2268000E116E000E126EAE
:101BF600000E136E000E146E23BE0CEF0EF0235073
:101C060006E12204D8B00AEF0EF00CEF0EF018EF42
:101C16000EF0236A000E226E000E116E000E126E7A
:101C2600000E136E000E146E216A22C028F028A042
:101C36001FEF0EF021EF0EF024EF0EF0138E25EFBE
:101C46000EF0139ED8902830146EDFEF0CF01200C1
:101C56000B6E0B50D8B432EF0EF034EF0EF056EF99
:101C66000EF006BE3BEF0EF039EF0EF056EF0EF01B
:101C760003C007F004C008F005C009F006C00AF06A
:101C8600071E081E091E0A1E072A000E0822092220
:101C96000A2207C00DF008C00EF009C00FF00AC0F6
:101CA60010F05EEF0EF003C00DF004C00EF005C09C
:101CB6000FF006C010F00350041005100610D8A44B
:101CC60067EF0EF069EF0EF073EF0EF0000E036E85
:101CD600000E046E000E056E000E066E04EF0FF089
:101CE600960E0C6E7DEF0EF00C2AD89010320F3245
:101CF6000E320D32000E0D14076E000E0E14086E15
:101D0600000E0F14096EFE0E10140A6E075008100E
:101D160009100A10D8A492EF0EF094EF0EF077EFA8
:101D26000EF0A2EF0EF00C2A010E0D26000E0E226A
:101D36000F221022D89010320F320E320D32000EC2
:101D46000D14076E000E0E14086E000E0F14096EA9
:101D5600FF0E10140A6E0750081009100A10D8A4B6
:101D6600B7EF0EF0B9EF0EF096EF0EF0C1EF0EF0F2
:101D76000C06D8900D360E360F3610360FBEC6EF4F
:101D86000EF0C8EF0EF0D0EF0EF0020E0C60CEEFA4
:101D96000EF0D0EF0EF0BBEF0EF00CB0D5EF0EF05C
:101DA600D7EF0EF0D8EF0EF00F9ED8900C320CC085
:101DB60007F0086A096A0A6A07C00AF0096A086A27
:101DC600076A07500D1208500E1209500F120A50DA
:101DD60010120B50D8B4F2EF0EF0F4EF0EF0FCEF49
:101DE6000EF006BEFBEF0EF0F9EF0EF0FCEF0EF074
:101DF600108E0DC003F00EC004F00FC005F010C029
:101E060006F012004650D8A40BEF0FF00DEF0FF0BE
:101E160010EF0FF0476A9AEF0FF0C69A4650D96E48
:101E2600DA6A060ED926DFA01BEF0FF01DEF0FF0C2
:101E360023EF0FF046C044F01FEC10F059EF0FF0FF
:101E46004650D96EDA6A060ED926DFB02DEF0FF0AE
:101E56002FEF0FF059EF0FF04650D96EDA6A060EE3
:101E6600D926DFA639EF0FF03BEF0FF03EEF0FF06C
:101E7600C58E4BEF0FF04650D96EDA6A060ED9269C
:101E8600DFB648EF0FF04AEF0FF04BEF0FF0C59EAD
:101E9600C69EC69CC6884650D96EDA6A050ED926F5
:101EA600DF50C86E46C003F013EC11F03CEC11F0A5
:101EB6004650D96EDA6A060ED926DFA265EF0FF014
:101EC60067EF0FF06AEF0FF0C78E77EF0FF046500F
:101ED600D96EDA6A060ED926DFB274EF0FF076EF06
:101EE6000FF077EF0FF0C79E4650D96EDA6A060EEE
:101EF600D926DFA481EF0FF083EF0FF086EF0FF006
:101F0600C78C93EF0FF04650D96EDA6A060ED926C3
:101F1600DFB490EF0FF092EF0FF093EF0FF0C79C46
:101F260046C003F0C3EC10F0C68A010E476E475058
:101F360012003C343D34436E4350D8A4A5EF0FF055
:101F4600A7EF0FF0B1EF0FF0000E3A6E000E3B6EEA
:101F5600000E3C6E000E3D6E1EEF10F03AC03EF0D5
:101F66003BC03FF03CC040F03DC041F0200EC1EF09
:101F76000FF0D890413240323F323E32E82EBCEF6D
:101F86000FF03E50426E3C8EFF0E3A16FF0E3B1689
:101F9600FF0E3C16000E3D16960E435E43BED8EF6E
:101FA6000FF0D6EF0FF0EEEF0FF04350800A970FC9
:101FB600D8B0E0EF0FF0E2EF0FF0E4EF0FF0A7EF8D
:101FC6000FF0D8903D323C323B323A32433EE4EF9A
:101FD6000FF006EF10F01F0E4364F4EF0FF0F6EF6C
:101FE6000FF0FEEF0FF0A7EF0FF0D8903A363B3622
:101FF6003C363D3643064350D8A404EF10F006EFB6
:1020060010F0F8EF0FF04250D8B40CEF10F00EEFCE
:1020160010F016EF10F03D1E3C1E3B1E3A6C000EF3
:102026003B223C223D223AC03AF03BC03BF03CC04A
:102036003CF03DC03DF012004450D96EDA6A040E01
:10204600D926DF50456EC6504518F00B4518C66EAA
:10205600000E2E6E000E2F6E800E306EBF0E316E8D
:102066004450D96EDA6ADECF03F0DECF04F0DECF5D
:1020760005F0DECF06F0000E2BEC0EF003C015F0D7
:1020860004C016F005C017F006C018F0000E116E59
:10209600240E126EF40E136E490E146E64EC0CF0E0
:1020A60011C02AF012C02BF013C02CF014C02DF072
:1020B6000BEC08F02AC03AF02BC03BF02CC03CF0E9
:1020C6002DC03DF09CEC0FF03A50C86E1200080E81
:1020D600F66E220EF76E000EF86E00EEA9F010EE08
:1020E6001EF00900F5CFEEFFE550E150FAE1640E6F
:1020F600F66E220EF76E000EF86E00EE74F010EE1D
:102106000BF00900F5CFEEFFE550E150FAE100EEE5
:1021160080F0290EEE6AE806FDE100EE48F02C0E8E
:10212600EE6AE806FDE10190019200019BEF10F0D6
:1021360059EC11F0A00E00019A6F860E9B6F010EEE
:102146009C6F000E9D6FA081080E9E6FA095A083C8
:10215600000EA56F000EA66F000EA76F000EA86FEB
:10216600000EA36F000EA46F9A0E466E05EC0FF0DC
:102176009A0E036EE5EC10F0BFEF10F007EF00F0DB
:102186009D86A0869E96A1960350D96EDA6A090EA0
:10219600D926DECF60F0DDCF61F00350D96EDA6A62
:1021A6000B0ED926DECF5EF0DDCF5FF00350D96E81
:1021B600DA6A0D0ED926DECF98F0DDCF99F0F28ED1
:1021C600F28C12000350D8A4EBEF10F0EDEF10F0F4
:1021D600F0EF10F0046A02EF11F0C580C5B0F6EF1B
:1021E60010F0F8EF10F0F1EF10F09E96C7A6FEEF94
:1021F60010F000EF11F0EDEF10F0010E046E045038
:102206001200800F810F820F830F840F890F8A0FB0
:102216008B0F8C0F8D0F920F930F940F950F960FB8
:102226000350D96EDA6A040ED926DF50046EC65002
:102236000418F00B0418C66E1200A1924B50B36E30
:102246004AC0B2FF12009E904D50CF6E4CC0CEFFDA
:102256001200F2944F50D76E4EC0D6FF1200685A45
:09226600622A1A622A0101010139
:102270009E926AC0CCFF1200948694881200F2905D
:102280001200F2901200F2901200F29012009E964C
:102290001200A1961200F0921200F0901200F29239
:1022A00012009D981200A19012009E9412009E9C14
:0822B0001200120012001200DE
:020000040030CA
:0E000000FF02091EFF8181FF0FC00FE00F40BD
:00000001FF
