:0400000007EF00F016
:0A0008000182D2ED09F0E2EF10F0E2
:10100000003738392F3435362A3132332D23303DED
:051010002B2569000022
:101016001B50800B286E1B501B242F6E1AAE16EF2A
:1010260008F018EF08F019EF08F02F802F50D8B409
:101036001FEF08F021EF08F035EF08F02F28D8A4AD
:1010460027EF08F029EF08F031EF08F0000E186ED0
:10105600000E196E000E1A6E000E1B6E1A8E1B6A9B
:101066003DEF08F0000E186E000E196E000E1A6E97
:10107600000E1B6E1F50800B281A1F501F24306E47
:101086001EAE48EF08F04AEF08F04BEF08F030804C
:101096003050D8B451EF08F053EF08F067EF08F07E
:1010A6003028D8A459EF08F05BEF08F063EF08F09A
:1010B600000E1C6E000E1D6E000E1E6E000E1F6EC4
:1010C6001E8E1F6A6FEF08F0000E1C6E000E1D6E5E
:1010D600000E1E6E000E1F6E1C501D101E101F10DF
:1010E600D8A478EF08F07AEF08F092EF08F0000E37
:1010F600186E000E196E000E1A6E000E1B6E800E14
:101106001A127F0E1B1228501B1218C018F019C095
:1011160019F01AC01AF01BC01BF0D1EF09F02F50BE
:10112600D8A498EF08F09AEF08F0A4EF08F0000EA4
:10113600186E000E196E000E1A6E000E1B6ED1EFA1
:1011460009F030502FC020F0216A205E000E215A8F
:101156007F0E2024296E000E21202A6E18C024F04E
:1011660019C025F01AC026F01BC027F0000E186E15
:10117600000E196E000E1A6E000E1B6E000E2B6E00
:10118600000E2C6E000E2D6E000E2E6E306A04EFD1
:1011960009F03050D8B4D2EF08F0D4EF08F0EBEFF6
:1011A60008F0D8902436253626362736D8901836B5
:1011B60019361A361B362EAEE3EF08F0E5EF08F0C7
:1011C600E6EF08F01880D8902B362C362D362E36C2
:1011D6001C50245C1D5025581E5026581F50275859
:1011E600D8A0F8EF08F0FAEF08F003EF09F02E8C1C
:1011F6001C50245E1D50255A1E50265A1F50275A31
:10120600302A190E30640AEF09F00CEF09F0CCEF22
:1012160008F02450251026102710D8B415EF09F031
:1012260017EF09F02FEF09F02B802FEF09F0D89078
:10123600183619361A361B362EAE24EF09F026EF6D
:1012460009F027EF09F01880D8902B362C362D366A
:101256002E362906D8A02A061AAE34EF09F036EF44
:1012660009F01AEF09F0306A2EAE3CEF09F03EEFB6
:1012760009F062EF09F0FF0E2B14206EFF0E2C14FE
:10128600216EFF0E2D14226E7F0E2E14236E20501B
:10129600211022102310D8B453EF09F055EF09F0AE
:1012A60059EF09F0010E306E62EF09F018A05EEFFB
:1012B60009F060EF09F062EF09F055EF09F03050E0
:1012C600D8B468EF09F06AEF09F08EEF09F0010E65
:1012D6001826000E19221A221B221BA075EF09F0F0
:1012E60077EF09F08EEF09F018C020F019C021F051
:1012F6001AC022F01BC023F02334233222322132BB
:10130600203220C018F021C019F022C01AF023C0E4
:101316001BF0294A2A2A2ABE99EF09F02A5008E129
:101326002928D8A099EF09F09BEF09F0A6EF09F05C
:10133600000E2A6E2968000E186E000E196E000E39
:101346001A6E000E1B6E2ABEB3EF09F02A5006E194
:101356002904D8B0B1EF09F0B3EF09F0BFEF09F0F7
:101366002A6A000E296E000E186E000E196E000E07
:101376001A6E000E1B6E286A29C02FF02FA0C6EF2A
:1013860009F0C8EF09F0CBEF09F01A8ECCEF09F09F
:101396001A9ED8902F301B6E86EF08F012000600BA
:1013A600FACF06F0FBCF07F0D9CF08F0DACF09F075
:1013B600F2A8E0EF09F0E2EF09F0EBEF09F0F2A294
:1013C600E7EF09F0E9EF09F0EBEF09F01FEC12F097
:1013D600F0A6F0EF09F0F2EF09F0FBEF09F0F0A04C
:1013E600F7EF09F0F9EF09F0FBEF09F01DEC12F049
:1013F600F0A800EF0AF002EF0AF00BEF0AF0F0A2F5
:1014060007EF0AF009EF0AF00BEF0AF01BEC12F0F7
:10141600F2A610EF0AF012EF0AF02CEF0AF0F2A093
:1014260017EF0AF019EF0AF02CEF0AF081A81EEF69
:101436000AF020EF0AF02CEF0AF07604D8A426EF83
:101446000AF028EF0AF02CEF0AF0766A000E19EC83
:1014560012F0F2A631EF0AF033EF0AF04DEF0AF080
:10146600F2A038EF0AF03AEF0AF04DEF0AF081B831
:101476003FEF0AF041EF0AF04DEF0AF07604D8A4E8
:1014860047EF0AF049EF0AF04DEF0AF0766A010ECF
:1014960019EC12F0F2A652EF0AF054EF0AF06EEFD2
:1014A6000AF0F2A059EF0AF05BEF0AF06EEF0AF0CD
:1014B60081AA60EF0AF062EF0AF06EEF0AF0750497
:1014C600D8A468EF0AF06AEF0AF06EEF0AF0756AC0
:1014D600000E17EC12F0F2A673EF0AF075EF0AF0A1
:1014E60090EF0AF0F2A07AEF0AF07CEF0AF090EFA4
:1014F6000AF081BA81EF0AF083EF0AF090EF0AF062
:101506007550D8A489EF0AF08BEF0AF090EF0AF035
:10151600010E756E010E17EC12F0F2A695EF0AF0A9
:1015260097EF0AF0B1EF0AF0F2A09CEF0AF09EEFF7
:101536000AF0B1EF0AF081ACA3EF0AF0A5EF0AF0CA
:10154600B1EF0AF07404D8A4ABEF0AF0ADEF0AF0DD
:10155600B1EF0AF0746A000E15EC12F0F2A6B6EFBF
:101566000AF0B8EF0AF0D3EF0AF0F2A0BDEF0AF0E6
:10157600BFEF0AF0D3EF0AF081BCC4EF0AF0C6EF62
:101586000AF0D3EF0AF07450D8A4CCEF0AF0CEEFED
:101596000AF0D3EF0AF0010E746E010E15EC12F08C
:1015A600F2A6D8EF0AF0DAEF0AF0F4EF0AF0F2A0AA
:1015B600DFEF0AF0E1EF0AF0F4EF0AF081AEE6EFB2
:1015C6000AF0E8EF0AF0F4EF0AF07304D8A4EEEF9D
:1015D6000AF0F0EF0AF0F4EF0AF0736A000E13EC6B
:1015E60012F0F2A6F9EF0AF0FBEF0AF016EF0BF095
:1015F600F2A000EF0BF002EF0BF016EF0BF081BE3E
:1016060007EF0BF009EF0BF016EF0BF07350D8A4B1
:101616000FEF0BF011EF0BF016EF0BF0010E736EE0
:10162600010E13EC12F09DAC1BEF0BF01DEF0BF04F
:1016360026EF0BF09EAC22EF0BF024EF0BF026EF1B
:101646000BF023EC12F0F2AA2BEF0BF02DEF0BF0C0
:1016560036EF0BF0F2A432EF0BF034EF0BF036EF6F
:101666000BF007EC12F09DA03BEF0BF03DEF0BF0FB
:1016760046EF0BF09EA042EF0BF044EF0BF046EF67
:101686000BF001EC12F09DA24BEF0BF04DEF0BF0BF
:1016960056EF0BF09EA252EF0BF054EF0BF056EF05
:1016A6000BF00DEC12F0A0A25BEF0BF05DEF0BF070
:1016B60066EF0BF0A1A262EF0BF064EF0BF066EFA2
:1016C6000BF0A5EC11F09DA46BEF0BF06DEF0BF09A
:1016D60076EF0BF09EA472EF0BF074EF0BF076EF43
:1016E6000BF0C0EC11F0A0A07BEF0BF07DEF0BF040
:1016F60086EF0BF0A1A082EF0BF084EF0BF086EFE4
:101706000BF021EC12F009C0DAFF08C0D9FF07C0C0
:10171600FBFF06C0FAFF01921100126E1250D8B4F8
:1017260097EF0BF099EF0BF0BBEF0BF00DBEA0EFB0
:101736000BF09EEF0BF0BBEF0BF00AC00EF00BC0E8
:101746000FF00CC010F00DC011F00E1E0F1E101E73
:10175600111E0E2A000E0F22102211220EC014F0A6
:101766000FC015F010C016F011C017F0C3EF0BF044
:101776000AC014F00BC015F00CC016F00DC017F01F
:101786000A500B100C100D10D8A4CCEF0BF0CEEFB6
:101796000BF0D8EF0BF0000E0A6E000E0B6E000E6B
:1017A6000C6E000E0D6E69EF0CF0960E136EE2EFE6
:1017B6000BF0132AD8901732163215321432000E57
:1017C60014140E6E000E15140F6E000E1614106E05
:1017D600FE0E1714116E0E500F1010101110D8A413
:1017E600F7EF0BF0F9EF0BF0DCEF0BF007EF0CF077
:1017F600132A010E1426000E152216221722D8903F
:101806001732163215321432000E14140E6E000EF4
:1018160015140F6E000E1614106EFF0E1714116EAF
:101826000E500F1010101110D8A41CEF0CF01EEF64
:101836000CF0FBEF0BF026EF0CF01306D8901436E5
:1018460015361636173616BE2BEF0CF02DEF0CF0AC
:1018560035EF0CF0020E136033EF0CF035EF0CF0A1
:1018660020EF0CF013B03AEF0CF03CEF0CF03DEF2C
:101876000CF0169ED890133213C00EF00F6A106A41
:10188600116A0EC011F0106A0F6A0E6A0E50141219
:101896000F50151210501612115017121250D8B4BC
:1018A60057EF0CF059EF0CF061EF0CF00DBE60EF46
:1018B6000CF05EEF0CF061EF0CF0178E14C00AF01E
:1018C60015C00BF016C00CF017C00DF0120025EC79
:1018D60012F0820E0001AB6F220EAC6FA66BA76BE7
:1018E600050EA86FAA6BA951F80B0209A96FA95199
:1018F600C70B1009A96FA98DA60E156EB6EC0FF0D1
:10190600F20E0001B16F230EB26FB695B36BFC0EEB
:10191600B617B56B000EB46FB699B10E0B6E2AEC06
:1019260010F0020E6818D8A49BEF0CF09DEF0CF097
:1019360094EF0CF0A2C0BBF0A3C0BCF0A4C0BDF0F5
:10194600A5C0BEF0BCC0BEF0BBC0BDF00001BC6B04
:10195600BB6B7150BB25B76F7250BC21B86F000EC0
:10196600BD21B96F000EBE21BA6F000E1C6E240E8B
:101976001D6E740E1E6E490E1F6EB7C00AF0B8C0FB
:101986000BF0B9C00CF0BAC00DF0000E90EC0BF0E5
:101996000AC018F00BC019F00CC01AF00DC01BF0ED
:1019A6000BEC08F018C0BFF019C0C0F01AC0C1F0A7
:1019B6001BC0C2F0BFC01CF0C0C01DF0C1C01EF0ED
:1019C600C2C01FF0000E186E000E196E800E1A6E41
:1019D6003F0E1B6E0BEC08F018C031F019C032F048
:1019E6001AC033F01BC034F033EC0FF031C09EF058
:1019F60032C09FF033C0A0F034C0A1F0686A94EF03
:101A06000CF007EF00F0010E0E6E0C50D96EDA6A7C
:101A1600DF50D8A411EF0DF013EF0DF052EF0DF0DB
:101A260036EF0DF0BD50F00B0809BD6E99EF0DF0C5
:101A3600BD50F00B0909BD6E99EF0DF0BD50F00BCE
:101A46000209BD6E99EF0DF0BD50F00B0A09BD6E8F
:101A560099EF0DF0BD50F00B0B09BD6E99EF0DF02F
:101A66000E6A99EF0DF00C50D96EDA6A020ED9267D
:101A7600DF50020AD8B421EF0DF00A0AD8B415EFE8
:101A86000DF0010AD8B41BEF0DF0030AD8B427EF06
:101A96000DF0010AD8B42DEF0DF033EF0DF00C5018
:101AA600D96EDA6ADE04D8A45BEF0DF05DEF0DF0B7
:101AB60099EF0DF07DEF0DF0BA50F00B0809BA6EF4
:101AC60099EF0DF0BA50F00B0909BA6E99EF0DF0C7
:101AD600BA50F00B0209BA6E99EF0DF0BA50F00B3E
:101AE6000A09BA6E99EF0DF0BA50F00B0B09BA6EEF
:101AF60099EF0DF00C50D96EDA6A020ED926DF5036
:101B0600020AD8B46BEF0DF00A0AD8B45FEF0DF0F5
:101B1600010AD8B465EF0DF0030AD8B471EF0DF0E1
:101B2600010AD8B477EF0DF033EF0DF00CC00AF0D0
:101B3600AFEC10F00E501200010E106E0A50D8B421
:101B4600A7EF0DF0A9EF0DF0B9EF0DF00A50D96E21
:101B5600DA6ADF30E832E832070B0B6E070E0B64E9
:101B6600B7EF0DF0B9EF0DF00FEF0EF0106A25EF9D
:101B76000EF00A50D96EDA6ADF30E832E832070B27
:101B86000B6E010E0C6E0B2ACBEF0DF0D8900C36B7
:101B96000B2EC9EF0DF00C50FF0A0D6E0A50D96ED0
:101BA600DA6ADF50070B020DF350940FD96EDA6A2A
:101BB600DECF0EF0DDCF0FF00EC0D9FF0FC0DAFF7B
:101BC6000D50DF1625EF0EF00A50D96EDA6ADF30B7
:101BD600E832E832070B0B6E010E0C6E0B2AF6EF9D
:101BE6000DF0D8900C360B2EF4EF0DF00A50D96E8E
:101BF600DA6ADF50070B020DF350940FD96EDA6ADA
:101C0600DECF0DF0DDCF0EF00DC0D9FF0EC0DAFF2E
:101C16000C50DF1225EF0EF00A50D96EDA6ADFBCDF
:101C260017EF0EF01AEF0EF0010E1BEF0EF0000E7E
:101C3600000AD8B4BCEF0DF0010AD8B4E7EF0DF0F6
:101C4600B9EF0DF010501200010E116E0A50D8B403
:101C56002FEF0EF031EF0EF041EF0EF00A50D96E75
:101C6600DA6ADF30E832E832070B0C6E070E0C64D6
:101C76003FEF0EF041EF0EF097EF0EF0116AACEF6A
:101C86000EF00A50D96EDA6ADF30E832E832070B16
:101C96000C6E010E0D6E0C2A53EF0EF0D8900D3619
:101CA6000C2E51EF0EF00D50FF0A0E6E0A50D96E33
:101CB600DA6ADF50070B020DF3508A0FD96EDA6A23
:101CC600DECF0FF0DDCF10F00FC0D9FF10C0DAFF66
:101CD6000E50DF16ACEF0EF00A50D96EDA6ADF301E
:101CE600E832E832070B0C6E010E0D6E0C2A7EEF01
:101CF6000EF0D8900D360C2E7CEF0EF00A50D96EF1
:101D0600DA6ADF50070B020DF3508A0FD96EDA6AD2
:101D1600DECF0EF0DDCF0FF00EC0D9FF0FC0DAFF19
:101D26000D50DF12ACEF0EF00B500C6E0D6A0D501D
:101D3600000AD8B4A1EF0EF041EF0EF00C50000AE5
:101D4600D8B444EF0EF0010AD8B46FEF0EF041EFAD
:101D56000EF011501200010E0E6E0C50D96EDA6A9A
:101D6600DF50D8A4B9EF0EF0BBEF0EF0F0EF0EF097
:101D7600D8EF0EF0BD50F00B0409BD6E2DEF0FF03D
:101D8600BD50F00B0509BD6E2DEF0FF0BD50F00BE9
:101D96000609BD6E2DEF0FF0BD50F00B0709BD6EA5
:101DA6002DEF0FF00E6A2DEF0FF00C50D96EDA6A98
:101DB600020ED926DF50040AD8B4BDEF0EF0010A90
:101DC600D8B4C3EF0EF0030AD8B4C9EF0EF0010A77
:101DD600D8B4CFEF0EF0D5EF0EF00C50D96EDA6A0C
:101DE600DE04D8A4F9EF0EF0FBEF0EF02DEF0FF0A6
:101DF60015EF0FF0BA50F00B0409BA6E2DEF0FF085
:101E0600BA50F00B0509BA6E2DEF0FF0BA50F00B71
:101E16000609BA6E2DEF0FF0BA50F00B0709BA6E2D
:101E26002DEF0FF00C50D96EDA6A020ED926DF506C
:101E3600040AD8B4FDEF0EF0010AD8B403EF0FF090
:101E4600030AD8B409EF0FF0010AD8B40FEF0FF068
:101E5600D5EF0EF00CC00AF0AFEC10F00E501200E9
:101E6600333434343A6E3A50D8A43CEF0FF03EEF98
:101E76000FF048EF0FF0000E316E000E326E000EBE
:101E8600336E000E346EB5EF0FF031C035F032C050
:101E960036F033C037F034C038F0200E58EF0FF06C
:101EA600D8903832373236323532E82E53EF0FF0CB
:101EB6003550396E338EFF0E3116FF0E3216FF0E79
:101EC6003316000E3416960E3A5E3ABE6FEF0FF0DA
:101ED6006DEF0FF085EF0FF03A50800A970FD8B0EC
:101EE60077EF0FF079EF0FF07BEF0FF03EEF0FF08B
:101EF600D89034323332323231323A3E7BEF0FF001
:101F06009DEF0FF01F0E3A648BEF0FF08DEF0FF081
:101F160095EF0FF03EEF0FF0D8903136323633366C
:101F260034363A063A50D8A49BEF0FF09DEF0FF0E7
:101F36008FEF0FF03950D8B4A3EF0FF0A5EF0FF0E5
:101F4600ADEF0FF0341E331E321E316C000E3222FE
:101F56003322342231C031F032C032F033C033F094
:101F660034C034F012001550D8A4BCEF0FF0BEEF09
:101F76000FF0C1EF0FF0176A28EF10F01550D96E69
:101F8600DA6ADF50D8A4CAEF0FF0CCEF0FF0D0EF2B
:101F96000FF0F00EBD16DDEF0FF01550D96EDA6AB0
:101FA600DE04D8A4D9EF0FF0DBEF0FF0DDEF0FF072
:101FB600F00EBA161550D96EDA6A010ED926DF5020
:101FC600D8A4E8EF0FF0EAEF0FF0F0EF0FF015C02E
:101FD6000CF0AEEC0EF001EF10F01550D96EDA6A87
:101FE600010ED926DE04D8A4FBEF0FF0FDEF0FF0AB
:101FF60001EF10F015C00CF006EC0DF01550030FB4
:10200600126E13EC11F015C00AF08AEC11F015509F
:10201600D96EDA6ADF50D8A413EF10F015EF10F07E
:1020260019EF10F0F00EBD1626EF10F01550D96E10
:10203600DA6ADE04D8A422EF10F024EF10F026EFBF
:1020460010F0F00EBA16010E176E175012000B5054
:10205600D8A430EF10F032EF10F035EF10F00E6A22
:1020660074EF10F0B1900B50D96EDA6A050ED926CE
:10207600DF50030B0C6E0C3AB1500C18CF0B0C183A
:10208600B16E0BC00AF076EC10F00B50D96EDA6A1E
:10209600030ED926DECF0CF0DDCF0DF00DC00CF00F
:1020A6000D6A0C50B36E0B50D96EDA6A030ED92640
:1020B600DF50B26E0B50D96EDA6A030ED926DECF28
:1020C6003BF0DDCF3CF0A082A1920B50D96EDA6ACC
:1020D600DECF3DF0DDCF3EF0F28EF28CB180010E08
:1020E6000E6E0E5012000A50D96EDA6A050ED92607
:1020F600DFB480EF10F082EF10F085EF10F0B192B0
:10210600AEEF10F00A50D96EDA6A050ED926DFA4B2
:102116008FEF10F091EF10F0AEEF10F0B1820A5091
:10212600D96EDA6A050ED926DFA69CEF10F09EEF6F
:1021360010F0A1EF10F0B184AEEF10F00A50D96E96
:10214600DA6A050ED926DFB6ABEF10F0ADEF10F068
:10215600AEEF10F0B19412000A50D96EDA6A040E8E
:10216600D926DF50D8A4BAEF10F0BCEF10F0C0EFBC
:1021760010F0B196B18CE1EF10F00A50D96EDA6A20
:10218600040ED926DE04D8A4CBEF10F0CDEF10F064
:10219600D1EF10F0B186B19CE1EF10F00A50D96E84
:1021A600DA6A040ED926020EDE18D8A4DDEF10F086
:1021B600DFEF10F0E1EF10F0B196B19C1200D40EF3
:1021C600F66E230EF76E000EF86E00EE80F010EE3F
:1021D6001EF00900F5CFEEFFE550E150FAE1220EC0
:1021E600F66E240EF76E000EF86E00EE73F010EE2B
:1021F60004F00900F5CFEEFFE550E150FAE100EEFC
:102206009EF01D0EEE6AE806FDE100EE3BF0380E8C
:10221600EE6AE806FDE10190019200016AEF0CF01A
:102226001250D8B419EF11F01BEF11F02BEF11F08B
:102236001250D96EDA6ADF30E832E832070B136ED5
:10224600070E136429EF11F02BEF11F02EEF11F0AA
:10225600146A3FEF11F012C00AF09FEC0DF0146EF5
:1022660012C00AF01250D96EDA6A000EDFBE010EF5
:102276000B6E27EC0EF0146E14501200672A682AB3
:102286006704D8A449EF11F04BEF11F054EF11F0A9
:10229600B10E026E046A000E036ED7EC11F06BEFFE
:1022A60011F0020E6718D8A45BEF11F05DEF11F084
:1022B6006BEF11F0000E0001A26F000EA36F000E6F
:1022C600A46F000EA56F676A710E026E6CEC11F0BA
:1022D600120049C004F04AC005F00250D8A476EFB7
:1022E60011F078EF11F07BEF11F0036A88EF11F02F
:1022F600BECF04F0BFCF05F00250D96EDA6A04C033
:10230600DEFF05C0DDFF010E036E035012009D8443
:102316009E940A50D96EDA6A050ED926DECF4DF0A4
:10232600DDCF4EF0F28EF28CA080A1900A50D96ECD
:10233600DA6A080ED926DECF4BF0DDCF4CF0F28EEE
:10234600F28C1200A1923C50B36E3BC0B2FF3D50DE
:102356003E10D8B4B1EF11F0B3EF11F0BFEF11F0AA
:1023660002D8BFEF11F00500FA6E3D50FD6E3E50EB
:10237600FE6EFF6AFA50120012009E944D504E10E7
:10238600D8B4C8EF11F0CAEF11F0D6EF11F002D8A9
:10239600D6EF11F00500FA6E4D50FD6E4E50FE6EF2
:1023A600FF6AFA50120012000250D8A4DDEF11F0B5
:1023B600DFEF11F0E2EF11F0056AE8EF11F00450DB
:1023C600B36E03C0B2FF010E056E05501200800FFA
:1023D600810F820F830F840F890F8A0F8B0F8C0F4B
:1023E6008D0F920F930F940F950F960F010E00010C
:1023F600A227000EA323A423A52312009E904250D9
:10240600CF6E41C0CEFF1200F2944650D76E45C043
:10241600D6FF12009E9269C0CCFF12000101010195
:10242600F2901200F2901200F2901200F290120056
:10243600F0921200F0901200F2921200A190120097
:062446009E9C1200120032
:020000040030CA
:0E000000FF02091EFF8181FF0FC00FE00F40BD
:00000001FF
