:0400000007EF00F016
:0A00080001821DED08F0BDEF0FF0BE
:10100000003738392F3435362A3132332D23303DED
:101010002B414443205465737400506F74303A2060
:1010200000506F74313A2000506F74323A200050F3
:101030006F74333A2000256900000600F2A823EF00
:1010400008F025EF08F02EEF08F0F2A22AEF08F0E2
:101050002CEF08F02EEF08F0BDEC11F0F0A633EF06
:1010600008F035EF08F03EEF08F0F0A03AEF08F096
:101070003CEF08F03EEF08F0BBEC11F0F0A843EFB6
:1010800008F045EF08F04EEF08F0F0A24AEF08F044
:101090004CEF08F04EEF08F0B9EC11F0F2A653EF68
:1010A00008F055EF08F06FEF08F0F2A05AEF08F0E3
:1010B0005CEF08F06FEF08F081A861EF08F063EFD4
:1010C00008F06FEF08F07104D8A469EF08F06BEF37
:1010D00008F06FEF08F0716A000EB7EC11F0F2A69D
:1010E00074EF08F076EF08F090EF08F0F2A07BEFD5
:1010F00008F07DEF08F090EF08F081B882EF08F07B
:1011000084EF08F090EF08F07104D8A48AEF08F09B
:101110008CEF08F090EF08F0716A010EB7EC11F057
:10112000F2A695EF08F097EF08F0B1EF08F0F2A003
:101130009CEF08F09EEF08F0B1EF08F081AAA3EF52
:1011400008F0A5EF08F0B1EF08F07004D8A4ABEFF9
:1011500008F0ADEF08F0B1EF08F0706A000EB5ECE2
:1011600011F0F2A6B6EF08F0B8EF08F0D3EF08F0F0
:10117000F2A0BDEF08F0BFEF08F0D3EF08F081BA9E
:10118000C4EF08F0C6EF08F0D3EF08F07050D8A411
:10119000CCEF08F0CEEF08F0D3EF08F0010E706E40
:1011A000010EB5EC11F0F2A6D8EF08F0DAEF08F076
:1011B000F4EF08F0F2A0DFEF08F0E1EF08F0F4EF51
:1011C00008F081ACE6EF08F0E8EF08F0F4EF08F083
:1011D0006F04D8A4EEEF08F0F0EF08F0F4EF08F099
:1011E0006F6A000EB3EC11F0F2A6F9EF08F0FBEF16
:1011F00008F016EF09F0F2A000EF09F002EF09F095
:1012000016EF09F081BC07EF09F009EF09F016EFBE
:1012100009F06F50D8A40FEF09F011EF09F016EFA5
:1012200009F0010E6F6E010EB3EC11F0F2A61BEF88
:1012300009F01DEF09F037EF09F0F2A022EF09F0F5
:1012400024EF09F037EF09F081AE29EF09F02BEF19
:1012500009F037EF09F06E04D8A431EF09F033EF4D
:1012600009F037EF09F06E6A000EB1EC11F0F2A64A
:101270003CEF09F03EEF09F059EF09F0F2A043EF1F
:1012800009F045EF09F059EF09F081BE4AEF09F086
:101290004CEF09F059EF09F06E50D8A452EF09F065
:1012A00054EF09F059EF09F0010E6E6E010EB1EC2A
:1012B00011F09DAC5EEF09F060EF09F069EF09F005
:1012C0009EAC65EF09F067EF09F069EF09F0BFEC3C
:1012D00011F0019211000E50D96EDA6ADFCFF6FFDD
:1012E000100EF76EF86A0800F550250AD8A47BEFB7
:1012F00009F07DEF09F035EF0AF00E50D96EDA6A89
:10130000DF2A396A000E386E38C054F03A683B68FC
:101310000E50D96EDA6ADF50126E12C0F6FF100E50
:10132000F76EF86A0800F550640AD8B49AEF09F02D
:101330009CEF09F0ABEF09F012C0F6FF100EF76E4C
:10134000F86A0800F550690AD8A4A9EF09F0ABEFD4
:1013500009F02FEF0AF00F50D96EDA6A020EDF267D
:10136000DF5CD96EDA6ADECF13F0DECF14F00E50F8
:10137000D96EDA6A1228DF6E200E176E14BEC3EF24
:1013800009F0C6EF09F0010EC7EF09F0000E116E6B
:1013900017061750800FD96EDA6A13C003F014C015
:1013A00004F0066A0A0E056EAEEC0DF003C009F0FB
:1013B00004C00AF03FEC11F00950300FDF6E13C08B
:1013C00003F014C004F0066A0A0E056EF3EC0CF08C
:1013D00003C013F004C014F013501410D8B4F3EF8A
:1013E00009F0F5EF09F0FDEF09F01750D8A4FBEF75
:1013F00009F0FDEF09F0C8EF09F01750D8B403EF7A
:101400000AF005EF0AF024EF0AF01150D8B40BEF00
:101410000AF00DEF0AF024EF0AF017061750800FBC
:10142000D96EDA6A2D0EDF6E24EF0AF01750800FA6
:10143000D96EDA6ADF50106E1050036E046A0DC068
:1014400005F005EC0EF0172A200E1718D8A42BEF84
:101450000AF02DEF0AF016EF0AF047EF0AF00E50EF
:10146000D96EDA6ADF2A47EF0AF00E50D96EDA6ACF
:10147000DFCFF6FF100EF76EF86A0800F550036E26
:10148000046A0DC005F005EC0EF02FEF0AF0120013
:10149000C2EC11F0790E116E88EC0CF0720E066E33
:1014A0005AEC0EF0790E156E010E166E070E176EC1
:1014B000110E186E1850D8A4100E196EFAEC0EF01A
:1014C0000B0E376E260E366E5E0EE82EFED7362ECB
:1014D000FCD7372EFAD7790E0E6E010E0F6E78EC10
:1014E00010F0790E156E010E166E010E176E1A0EA3
:1014F000186E1850D8A4100E196EFAEC0EF0790E72
:10150000156E020E166E010E176E210E186E185013
:10151000D8A4100E196EFAEC0EF0790E156E030EAB
:10152000166E010E176E280E186E1850D8A4100EE5
:10153000196EFAEC0EF0790E156E040E166E010E91
:10154000176E2F0E186E1850D8A4100E196EFAECE4
:101550000EF0720E0A6E000E0B6E620E0C6EEEEC4A
:101560000FF0720E0A6E010E0B6E600E0C6EEEEC3A
:101570000FF0720E0A6E020E0B6E5E0E0C6EEEEC2B
:101580000FF0720E0A6E030E0B6E5C0E0C6EEEEC1C
:101590000FF0BB0E2C6E625044EC0FF0B40E2C6EAC
:1015A000605044EC0FF0AD0E2C6E5E5044EC0FF02A
:1015B000A60E2C6E5C5044EC0FF0790E156E010EE9
:1015C000166E070E176EBB0E186E196AFAEC0EF047
:1015D000790E156E020E166E070E176EB40E186E8B
:1015E000196AFAEC0EF0790E156E030E166E070EE0
:1015F000176EAD0E186E196AFAEC0EF0790E156EB4
:10160000040E166E070E176EA60E186E196AFAEC07
:101610000EF0A9EF0AF007EF00F0010E096E03507B
:10162000D8B415EF0BF017EF0BF027EF0BF00350CA
:10163000D96EDA6ADF30E832E832070B046E070E43
:10164000046425EF0BF027EF0BF07DEF0BF0096A38
:1016500093EF0BF00350D96EDA6ADF30E832E832EC
:10166000070B046E010E056E042A39EF0BF0D890BB
:101670000536042E37EF0BF00550FF0A066E0350B7
:10168000D96EDA6ADF50070B020DF350CC0FD96E1A
:10169000DA6ADECF07F0DDCF08F007C0D9FF08C057
:1016A000DAFF0650DF1693EF0BF00350D96EDA6ABB
:1016B000DF30E832E832070B046E010E056E042AB3
:1016C00064EF0BF0D8900536042E62EF0BF0035058
:1016D000D96EDA6ADF50070B020DF350CC0FD96ECA
:1016E000DA6ADECF06F0DDCF07F006C0D9FF07C00B
:1016F000DAFF0550DF1293EF0BF00350D96EDA6A70
:10170000DFBC85EF0BF088EF0BF0010E89EF0BF0DB
:10171000000E000AD8B42AEF0BF0010AD8B455EF36
:101720000BF027EF0BF009501200010E0A6E035068
:10173000D8B49DEF0BF09FEF0BF0AFEF0BF0035021
:10174000D96EDA6ADF30E832E832070B056E070E31
:101750000564ADEF0BF0AFEF0BF005EF0CF00A6A8C
:101760001AEF0CF00350D96EDA6ADF30E832E83253
:10177000070B056E010E066E052AC1EF0BF0D8901F
:101780000636052EBFEF0BF00650FF0A076E03501A
:10179000D96EDA6ADF50070B020DF350640FD96E71
:1017A000DA6ADECF08F0DDCF09F008C0D9FF09C042
:1017B000DAFF0750DF161AEF0CF00350D96EDA6A21
:1017C000DF30E832E832070B056E010E066E052A9F
:1017D000ECEF0BF0D8900636052EEAEF0BF0035035
:1017E000D96EDA6ADF50070B020DF350640FD96E21
:1017F000DA6ADECF07F0DDCF08F007C0D9FF08C0F6
:10180000DAFF0650DF121AEF0CF00450056E066A7C
:101810000650000AD8B40FEF0CF0AFEF0BF00550F4
:10182000000AD8B4B2EF0BF0010AD8B4DDEF0BF028
:10183000AFEF0BF00A501200056E46EF0CF09280ED
:1018400087EF0CF0928287EF0CF0928487EF0CF018
:10185000928687EF0CF0928A87EF0CF0968087EFE4
:101860000CF0968287EF0CF0968487EF0CF093844F
:1018700087EF0CF0938687EF0CF0938287EF0CF0E4
:10188000938887EF0CF0938087EF0CF00550036E80
:10189000046A0450000AD8B450EF0CF087EF0CF043
:1018A0000350000AD8B41FEF0CF0010AD8B422EF9D
:1018B0000CF0030AD8B425EF0CF0010AD8B428EFD5
:1018C0000CF0070AD8B42BEF0CF0010AD8B42EEFB5
:1018D0000CF0030AD8B431EF0CF0010AD8B434EF9D
:1018E0000CF00F0AD8B437EF0CF0010AD8B43AEF75
:1018F0000CF0030AD8B43DEF0CF0010AD8B440EF65
:101900000CF0070AD8B443EF0CF087EF0CF012008C
:101910001150D8A48EEF0CF090EF0CF093EF0CF078
:10192000146AF1EF0CF011C00BF01DEC10F0146E06
:1019300011280B6E1DEC10F0146E136A1150132455
:10194000020F0B6E1DEC10F0132A030E1364ABEFA5
:101950000CF0ADEF0CF09EEF0CF01A0E126EF80EBC
:10196000E82EFED7122EFCD700D011C00EF0380E94
:101970000F6E78EC10F0070E126E7D0EE82EFED77B
:10198000122EFCD7000011C00EF0380E0F6E78EC4E
:1019900010F0320EE82EFED711C00EF0380E0F6E8A
:1019A00078EC10F011C00EF0010E0F6E78EC10F014
:1019B00011C00EF0020E0F6E78EC10F011C00EF098
:1019C000060E0F6E78EC10F011C00EF00C0E0F6EBC
:1019D00078EC10F011C00EF0280E0F6E78EC10F0BD
:1019E000146E14501200086A06BEFBEF0CF0F9EFFB
:1019F0000CF001EF0DF0056C061ED8B0062A010EA2
:101A0000086E04BE08EF0DF006EF0DF00EEF0DF0BE
:101A1000036C041ED8B0042A010E081A0A6A000ECC
:101A2000096E05500610D8B418EF0DF01AEF0DF03E
:101A300042EF0DF0010E076E22EF0DF0D890053643
:101A40000636072A06AE27EF0DF029EF0DF01EEF40
:101A50000DF0D89009360A360550035C065004583C
:101A6000D8A035EF0DF037EF0DF03CEF0DF005503D
:101A7000035E0650045A0980D89006320532072EBC
:101A800029EF0DF00850D8B448EF0DF04AEF0DF0F3
:101A90004EEF0DF0096C0A1ED8B00A2A09C003F0F7
:101AA0000AC004F012000350D8B459EF0DF05BEFF8
:101AB0000DF063EF0DF00450D8A461EF0DF063EF6B
:101AC0000DF066EF0DF0086AACEF0DF00350D96E23
:101AD000DA6A060ED926DFA270EF0DF072EF0DF074
:101AE00085EF0DF0C350C4CF05F0066A05C006F0BF
:101AF000056A0526000E06220450D96EDA6A05C072
:101B0000DEFF06C0DDFFAAEF0DF00350D96EDA6AE2
:101B1000060ED926DFB28FEF0DF091EF0DF072EFC8
:101B20000DF0C350C4CF05F0066A05C006F0056A83
:101B30000526000E0622060E076E06340632053212
:101B4000072E9DEF0DF00450D96EDA6A05C0DEFF56
:101B500006C0DDFF010E086E08501200086A04BEC0
:101B6000B6EF0DF0B4EF0DF0BCEF0DF0036C041EFA
:101B7000D8B0042A010E086E06BEC3EF0DF0C1EF07
:101B80000DF0C7EF0DF0056C061ED8B0062A055003
:101B90000610D8B4CEEF0DF0D0EF0DF0F4EF0DF04D
:101BA000010E076ED8EF0DF0D89005360636072ADD
:101BB00006AEDDEF0DF0DFEF0DF0D4EF0DF00550C8
:101BC000035C06500458D8A0E8EF0DF0EAEF0DF0E2
:101BD000EEEF0DF00550035E0650045AD890063221
:101BE0000532072EDFEF0DF00850D8B4FAEF0DF0F4
:101BF000FCEF0DF000EF0EF0036C041ED8B0042AC9
:101C000003C003F004C004F012000550D8B40BEF79
:101C10000EF00DEF0EF015EF0EF00550D8A413EFF7
:101C20000EF015EF0EF01AEF0EF00350C1EC11F0AC
:101C300059EF0EF00550D96EDA6A090ED926DE503A
:101C4000DE10D8B426EF0EF028EF0EF041EF0EF0C4
:101C50000550D96EDA6A090ED9260550E16EE26A9E
:101C6000020EE126DE50E65CE650800A0A6EDE5087
:101C7000800A0A58D8B03FEF0EF041EF0EF059EF4E
:101C80000EF00550D96EDA6A020ED926DF50066EC4
:101C90000550D96EDA6ADF500624D96EDA6A03C0BD
:101CA000DFFF0550D96EDA6A020ED926DE2A000E51
:101CB000DD2212000650D8A460EF0EF062EF0EF0A5
:101CC00065EF0EF0086AADEF0EF0C2900650D96EC7
:101CD000DA6A030ED926DF50076E07460746074625
:101CE000C0500718C70B0718C06E0650D96EDA6AC5
:101CF000040ED926DF50076EC0500718F80B0718DE
:101D0000C06E0650D96EDA6A050ED926DF50076E0E
:101D100007460746C2500718C30B0718C26E065085
:101D2000D96EDA6A050ED926DF501CEC0CF0F28E63
:101D3000F28C9D8C9E9C0650D96EDA6ADECF3CF008
:101D4000DDCF3DF006C003F0C8EC10F006C003F094
:101D5000A5EC10F0C280010E086E08501200010EB2
:101D6000146E13061150D8A4B8EF0EF0BAEF0EF0AF
:101D7000E5EF0EF0146AF8EF0EF011C00EF01350FC
:101D8000800F0F6E78EC10F0146EF8EF0EF011C0AB
:101D90000EF01350C00F0F6E78EC10F0146EF8EFC9
:101DA0000EF011C00EF01350940F0F6E78EC10F07F
:101DB000146EF8EF0EF011C00EF01350D40F0F6E2A
:101DC00078EC10F0146EF8EF0EF01250010AD8B44F
:101DD000BDEF0EF0030AD8B4C7EF0EF0010AD8B475
:101DE000D1EF0EF0070AD8B4DBEF0EF0F8EF0EF0EB
:101DF000145012001550D8A400EF0FF002EF0FF0AE
:101E000005EF0FF01A6A42EF0FF015C011F016C07F
:101E100012F017C013F0AFEC0EF01A6E29EF0FF0AE
:101E200015C00EF018C0F6FF19C0F7FF000EF86ECF
:101E30000F0EF76403D00800F55005D0F6CFE9FF88
:101E4000F7CFEAFFEF500F6E4BEC10F01A6E184A06
:101E5000192A18C0F6FF19C0F7FF000EF86E0F0E12
:101E6000F76403D00800F55005D0F6CFE9FFF7CFAF
:101E7000EAFFEF500009D8A440EF0FF042EF0FF057
:101E800010EF0FF01A501200336E010E346E20EE78
:101E90002DF0050EDE6AE806FDE2356A2C50D8A466
:101EA00054EF0FF056EF0FF059EF0FF0346A85EF53
:101EB0000FF02CC003F0056A000E046E076A0B0ECB
:101EC000066E71EC11F02D0E1C6E360E1D6E33C0B9
:101ED0001EF01F6A59EC11F079EF0FF035502D0FFD
:101EE000D96EDA6A2C503524E16EE26ADFCFE7FF63
:101EF000352A35502D0FD96EDA6ADF50D8A483EF1A
:101F00000FF085EF0FF06EEF0FF0345012000B5012
:101F1000D8A48DEF0FF08FEF0FF092EF0FF00D6A56
:101F2000BBEF0FF00B50020F036E0C50010B046E51
:101F300095EC0BF00D6E0B50030F036ED8900C3028
:101F4000010B046E95EC0BF00D6E0B50040F036E3D
:101F50000C40E8423F0B010B046E95EC0BF00D6E4C
:101F60000B50050F036E0C38E8461F0B010B046E77
:101F700095EC0BF00D6E0D5012004D0EF66E230E0B
:101F8000F76E000EF86E00EEC2F010EE14F00900CD
:101F9000F5CFEEFFE550E150FAE1320EF66E230E7A
:101FA000F76E000EF86E00EE64F010EE1BF0090004
:101FB000F5CFEEFFE550E150FAE100EE80F0420E81
:101FC000EE6AE806FDE100EE38F02C0EEE6AE80657
:101FD000FDE101900192000148EF0AF00A50D8B4E7
:101FE000F4EF0FF0F6EF0FF0FEEF0FF00C50D8A467
:101FF000FCEF0FF0FEEF0FF001EF10F00D6A1BEF9A
:1020000010F00AC006F00BC007F024EC11F00D6EC2
:102010000AC003F089EC11F00D6EC2B212EF10F09D
:1020200014EF10F00DEF10F00AC003F00CC004F034
:1020300053EC0DF00D6E0D5012000B50D8B423EF81
:1020400010F025EF10F035EF10F00B50D96EDA6A72
:10205000DF30E832E832070B0C6E070E0C6433EF0A
:1020600010F035EF10F038EF10F00D6A49EF10F076
:102070000BC003F00DEC0BF00D6E0BC003F00B501A
:10208000D96EDA6A000EDFBE010E046E95EC0BF01D
:102090000D6E0D5012000E50D8A451EF10F053EFFA
:1020A00010F056EF10F0106A76EF10F00EC003F04B
:1020B000010E046E95EC0BF0106E0E0E0B6E0F38C9
:1020C0000F0B0C6E87EC0FF0106E0EC00BF007ECD0
:1020D00011F0106E0E0E0B6E0FC00CF087EC0FF0AF
:1020E000106E0EC00BF007EC11F0106E10501200C5
:1020F0000E50D8A47EEF10F080EF10F083EF10F0B8
:10210000106AA3EF10F00EC003F0000E046E95EC01
:102110000BF0106E0E0E0B6E0F380F0B0C6E87EC63
:102120000FF0106E0EC00BF007EC11F0106E0E0EDB
:102130000B6E0FC00CF087EC0FF0106E0EC00BF0A2
:1021400007EC11F0106E105012000350D96EDA6ACD
:10215000060ED926DFA0AFEF10F0B1EF10F0B5EF0B
:1021600010F0C18AC188C7EF10F00350D96EDA6A47
:10217000060ED926DFB0BFEF10F0C1EF10F0C5EFAB
:1021800010F0C19AC198C7EF10F0C19AC19812001F
:102190000350D96EDA6A060ED926DFA2D2EF10F00C
:1021A000D4EF10F0D7EF10F0C08EE7EF10F003502F
:1021B000D96EDA6A060ED926DFB2E1EF10F0E3EF4E
:1021C00010F0E6EF10F0C09EE7EF10F0C08E1200A6
:1021D00019C01BF0F4EF10F018C00DF01B0E0E6EBE
:1021E0001AC00FF06BEC09F01BC0F6FF100EF76E73
:1021F000F86A0800F5500009D8A401EF11F003EFC8
:1022000011F0ECEF10F0196A000E186E12000B506E
:10221000D8A40DEF11F00FEF11F012EF11F00C6ACE
:1022200022EF11F00B28036E010E046E95EC0BF0FB
:1022300000D000D000000B28036E000E046E95EC59
:102240000BF00C6E0C5012000650D8A42AEF11F0BF
:102250002CEF11F02FEF11F0096A3DEF11F007C0DC
:1022600008F008460846C2500818C30B0818C26E8A
:1022700007501CEC0CF0010E096E095012000ABE4A
:1022800044EF11F046EF11F04CEF11F009C009F0E6
:102290000AC00AF058EF11F009C00BF00AC00CF0A8
:1022A0000B1E0C1E0B4A0C2A0BC009F00CC00AF0C6
:1022B00012001E0E206E1CC021F0246A000E236E38
:1022C0002B6A000E2A6E210E186E1DC019F0200E0A
:1022D0001A6EE8EC10F01C502324D96EDA6ADF6A1B
:1022E000120003C008F07BEF11F00850D96EDA6AD3
:1022F00004C0DFFF082A0606D8A00706062806E164
:102300000728D8A486EF11F088EF11F075EF11F0CF
:1023100012000350D8A48FEF11F091EF11F094EF59
:1023200011F0046A97EF11F0C282010E046E04509E
:102330001200890F8A0F8B0F8C0F8D0F0101010185
:1023400000000005050002020A121A222A800F81ED
:102350000F820F830F840F920F930F940F950F9698
:012360000F6D
:10236200F2901200F2901200F2901200F29012001B
:10237200F0921200F0901200F29212009E9C120053
:042382001200120033
:020000040030CA
:0E000000FF02091EFF8181FF0FC00FE00F40BD
:00000001FF
