:0400000007EF00F016
:0A00080001820BED08F01DEF0CF073
:10100000003738392F3435362A3132332D23303DED
:051010002B2569000022
:101016000600FACF5FF0FBCF60F0D9CF61F0DACFF0
:1010260062F0F3CF63F0F4CF64F0F2A81DEF08F09E
:101036001FEF08F028EF08F0F2A224EF08F026EFE1
:1010460008F028EF08F0AAEC0CF0F0A62DEF08F057
:101056002FEF08F038EF08F0F0A034EF08F036EF85
:1010660008F038EF08F0A8EC0CF0F0A83DEF08F017
:101076003FEF08F048EF08F0F0A244EF08F046EF23
:1010860008F048EF08F0A6EC0CF0F2A64DEF08F0D9
:101096004FEF08F069EF08F0F2A054EF08F056EFB2
:1010A60008F069EF08F081A85BEF08F05DEF08F043
:1010B60069EF08F05504D8A463EF08F065EF08F06F
:1010C60069EF08F0556A000EA4EC0CF0F2A66EEF7C
:1010D60008F070EF08F08AEF08F0F2A075EF08F05C
:1010E60077EF08F08AEF08F081B87CEF08F07EEF22
:1010F60008F08AEF08F05504D8A484EF08F086EFCC
:1011060008F08AEF08F0556A010EA4EC0CF0F2A67E
:101116008FEF08F091EF08F0ABEF08F0F2A096EF32
:1011260008F098EF08F0ABEF08F081AA9DEF08F001
:101136009FEF08F0ABEF08F05404D8A4A5EF08F031
:10114600A7EF08F0ABEF08F0546A000EA2EC0CF023
:10115600F2A6B0EF08F0B2EF08F0CDEF08F0F2A07B
:10116600B7EF08F0B9EF08F0CDEF08F081BABEEF9F
:1011760008F0C0EF08F0CDEF08F05450D8A4C6EF41
:1011860008F0C8EF08F0CDEF08F0010E546E010E1E
:10119600A2EC0CF0F2A6D2EF08F0D4EF08F0EEEFD6
:1011A60008F0F2A0D9EF08F0DBEF08F0EEEF08F058
:1011B60081ACE0EF08F0E2EF08F0EEEF08F0530440
:1011C600D8A4E8EF08F0EAEF08F0EEEF08F0536A6B
:1011D600000EA0EC0CF0F2A6F3EF08F0F5EF08F025
:1011E60010EF09F0F2A0FAEF08F0FCEF08F010EFAC
:1011F60009F081BC01EF09F003EF09F010EF09F0E7
:101206005350D8A409EF09F00BEF09F010EF09F0DD
:10121600010E536E010EA0EC0CF0F2A615EF09F0CC
:1012260017EF09F031EF09F0F2A01CEF09F01EEFFD
:1012360009F031EF09F081AE23EF09F025EF09F04F
:1012460031EF09F05204D8A42BEF09F02DEF09F085
:1012560031EF09F0526A000E9EEC0CF0F2A636EF62
:1012660009F038EF09F053EF09F0F2A03DEF09F06D
:101276003FEF09F053EF09F081BE44EF09F046EF66
:1012860009F053EF09F05250D8A44CEF09F04EEF95
:1012960009F053EF09F0010E526E010E9EEC0CF0B0
:1012A6009DAC58EF09F05AEF09F063EF09F09EACD8
:1012B6005FEF09F061EF09F063EF09F0ACEC0CF0B9
:1012C600F2AA68EF09F06AEF09F073EF09F0F2A4E9
:1012D6006FEF09F071EF09F073EF09F094EC0CF081
:1012E6009DA078EF09F07AEF09F083EF09F09EA050
:1012F6007FEF09F081EF09F083EF09F08EEC0CF037
:101306009DA288EF09F08AEF09F093EF09F09EA2FB
:101316008FEF09F091EF09F093EF09F09AEC0CF0DA
:10132600A0A298EF09F09AEF09F0A3EF09F0A1A2A5
:101336009FEF09F0A1EF09F0A3EF09F038EC0CF0EC
:1013460064C0F4FF63C0F3FF62C0DAFF61C0D9FF77
:1013560060C0FBFF5FC0FAFF01921100010E6B6EC9
:101366006550D8B4B9EF09F0BBEF09F0CBEF09F03F
:101376006550D96EDA6ADF30E832E832070B666EFE
:10138600070E6664C9EF09F0CBEF09F021EF0AF00A
:101396006B6A37EF0AF06550D96EDA6ADF30E832E9
:1013A600E832070B666E010E676E662ADDEF09F0FE
:1013B600D8906736662EDBEF09F06750FF0A686E35
:1013C6006550D96EDA6ADF50070B020DF350480FED
:1013D600D96EDA6ADECF69F0DDCF6AF069C0D9FF6F
:1013E6006AC0DAFF6850DF1637EF0AF06550D96E2B
:1013F600DA6ADF30E832E832070B666E010E676E96
:10140600662A08EF0AF0D8906736662E06EF0AF0CD
:101416006550D96EDA6ADF50070B020DF350480F9C
:10142600D96EDA6ADECF68F0DDCF69F068C0D9FF21
:1014360069C0DAFF6750DF1237EF0AF06550D96EE0
:10144600DA6ADFBC29EF0AF02CEF0AF0010E2DEF65
:101456000AF0000E000AD8B4CEEF09F0010AD8B49B
:10146600F9EF09F0CBEF09F06B501200010E6C6E2C
:101476006550D8B441EF0AF043EF0AF053EF0AF093
:101486006550D96EDA6ADF30E832E832070B676EEC
:10149600070E676451EF0AF053EF0AF0A9EF0AF05E
:1014A6006C6ABEEF0AF06550D96EDA6ADF30E83250
:1014B600E832070B676E010E686E672A65EF0AF061
:1014C600D8906836672E63EF0AF06850FF0A696E97
:1014D6006550D96EDA6ADF50070B020DF3503E0FE6
:1014E600D96EDA6ADECF6AF0DDCF6BF06AC0D9FF5B
:1014F6006BC0DAFF6950DF16BEEF0AF06550D96E91
:10150600DA6ADF30E832E832070B676E010E686E82
:10151600672A90EF0AF0D8906836672E8EEF0AF0A9
:101526006550D96EDA6ADF50070B020DF3503E0F95
:10153600D96EDA6ADECF69F0DDCF6AF069C0D9FF0D
:101546006AC0DAFF6850DF12BEEF0AF06650676EB7
:10155600686A6850000AD8B4B3EF0AF053EF0AF08D
:101566006750000AD8B456EF0AF0010AD8B481EFE2
:101576000AF053EF0AF06C5012006650D8A4C6EF7A
:101586000AF0C8EF0AF0CAEF0AF007EF0BF0B190C5
:101596006650D96EDA6A050ED926DF50030B676EE0
:1015A600673AB1506718CF0B6718B16E66C065F021
:1015B60083EC0BF06650D96EDA6A030ED926DECFBD
:1015C60067F0DDCF68F068C067F0686A6750B36E91
:1015D6006650D96EDA6A030ED926DF50B26E6650AF
:1015E600D96EDA6A030ED926DECF06F0DDCF07F014
:1015F600A082A1926650D96EDA6ADECF08F0DDCFFE
:1016060009F0F28EF28CB18012005750D8B40EEF6A
:101616000BF010EF0BF020EF0BF05750D96EDA6A93
:10162600DF30E832E832070B586E070E58641EEFBB
:101636000BF020EF0BF022EF0BF048EF0BF05750BA
:10164600D96EDA6ADF30E832E832070B586E010EDF
:10165600596E582A31EF0BF0D8905936582E2FEF85
:101666000BF05750D96EDA6ADF50070B020DF350B4
:101676003E0FD96EDA6ADECF5AF0DDCF5BF05AC084
:10168600D9FF5BC0DAFF5950DF1A1200010E0001C4
:10169600806F7050D8A452EF0BF054EF0BF057EF59
:1016A6000BF0806B80EF0BF033C081F07050D96E79
:1016B600DA6ADF500F0B716E81517118F80B7118D1
:1016C600816F7050D96EDA6ADF38070B716E71461A
:1016D6007146714681517118C70B7118816F819DD2
:1016E6007050D96EDA6ADFAE02D0818F02D0000167
:1016F600819F810E6D6EEFEC0BF0000180511200A0
:101706006550D96EDA6A050ED926DFB48DEF0BF077
:101716008FEF0BF092EF0BF0B192BBEF0BF0655031
:10172600D96EDA6A050ED926DFA49CEF0BF09EEF80
:101736000BF0BBEF0BF0B1826550D96EDA6A050E7D
:10174600D926DFA6A9EF0BF0ABEF0BF0AEEF0BF04F
:10175600B184BBEF0BF06550D96EDA6A050ED92657
:10176600DFB6B8EF0BF0BAEF0BF0BBEF0BF0B194AE
:1017760012005C50D8A4C2EF0BF0C4EF0BF0C6EF1A
:101786000BF0EEEF0BF030C05EF05C50D96EDA6A0B
:10179600DF500F0B5D6E5E505D18F80B5D185E6EC8
:1017A6005C50D96EDA6ADF38070B5D6E5D465D46C2
:1017B6005D465E505D18C70B5D185E6E5E9C5C50A4
:1017C600D96EDA6ADFAE02D05E8E01D05E9E5E0E04
:1017D600576E08EC0BF012006D50D8B4F5EF0BF015
:1017E600F7EF0BF007EF0CF06D50D96EDA6ADF30C9
:1017F600E832E832070B6E6E070E6E6405EF0CF0EA
:1018060007EF0CF00AEF0CF06F6A1BEF0CF06DC0DF
:1018160065F0B1EC09F06F6E6DC065F06D50D96E74
:10182600DA6A000EDFBE010E666E39EC0AF06F6EE4
:101836006F501200CA0EF66E180EF76E000EF86E96
:1018460000EE34F010EE23F00900F5CFEEFFE55080
:10185600E150FAE100EE02F0320EEE6AE806FDE132
:1018660001900192000177EF0CF0A1920750B36E40
:1018760006C0B2FF08500910D8B444EF0CF046EF8A
:101886000CF052EF0CF002D852EF0CF00500FA6E95
:101896000850FD6E0950FE6EFF6AFA5012001200E3
:1018A600060E696E190E6A6E6B6A6E94030E6E12E0
:1018B6003C0E6D6EB00E6C6E6E88690E666EC0EC78
:1018C6000AF01200800F810F820F830F840F890F99
:1018D6008A0F8B0F8C0F8D0F920F930F940F950F0E
:0718E600960F01010101034F
:1018EE00AEEC0CF053EC0CF0560E706E49EC0BF0A7
:1018FE007FEF0CF007EF00F0010E0226000E032220
:10190E0004220522560E5C6EBCEC0BF012009E906B
:10191E000D50CF6E0CC0CEFF1200F2941150D76E48
:10192E0010C0D6FF12009E922CC0CCFF1200F29077
:10193E001200F2901200F2901200F2901200F09249
:10194E001200F0901200F29212009E9C12001200F1
:020000040030CA
:0E000000FF02091EFF8181FF0FC00FE00F40BD
:00000001FF
