:04000000FEEF7FF0A0
:101000000000010E2A6E2450D8B409EF08F00BEF4F
:1010100008F01BEF08F02450D96EDA6ADF30E832AE
:10102000E832070B256E070E256419EF08F01BEF59
:1010300008F071EF08F02A6A87EF08F02450D96EA3
:10104000DA6ADF30E832E832070B256E010E266ED1
:10105000252A2DEF08F0D8902636252E2BEF08F004
:101060002650FF0A276E2450D96EDA6ADF50070B2C
:10107000020DF350150FD96EDA6ADECF28F0DDCFFE
:1010800029F028C0D9FF29C0DAFF2750DF1687EFE3
:1010900008F02450D96EDA6ADF30E832E832070B04
:1010A000256E010E266E252A58EF08F0D8902636B8
:1010B000252E56EF08F02450D96EDA6ADF50070B60
:1010C000020DF350150FD96EDA6ADECF27F0DDCFAF
:1010D00028F027C0D9FF28C0DAFF2650DF1287EF9B
:1010E00008F02450D96EDA6ADFBC79EF08F07CEFA3
:1010F00008F0010E7DEF08F0000E000AD8B41EEFD4
:1011000008F0010AD8B449EF08F01BEF08F02A50A4
:101110001200010E2B6E2450D8B491EF08F093EF1B
:1011200008F0A3EF08F02450D96EDA6ADF30E83215
:10113000E832070B266E070E2664A1EF08F0A3EF36
:1011400008F0F9EF08F02B6A0EEF09F02450D96E81
:10115000DA6ADF30E832E832070B266E010E276EBE
:10116000262AB5EF08F0D8902736262EB3EF08F0E0
:101170002750FF0A286E2450D96EDA6ADF50070B19
:10118000020DF3500B0FD96EDA6ADECF29F0DDCFF6
:101190002AF029C0D9FF2AC0DAFF2850DF160EEF47
:1011A00009F02450D96EDA6ADF30E832E832070BF2
:1011B000266E010E276E262AE0EF08F0D89027361B
:1011C000262EDEEF08F02450D96EDA6ADF50070BC6
:1011D000020DF3500B0FD96EDA6ADECF28F0DDCFA7
:1011E00029F028C0D9FF29C0DAFF2750DF120EEFFF
:1011F00009F02550266E276A2750000AD8B403EF5D
:1012000009F0A3EF08F02650000AD8B4A6EF08F0C2
:10121000010AD8B4D1EF08F0A3EF08F02B50120068
:101220002C50D8A416EF09F018EF09F023EF09F0BD
:10123000090E2D641EEF09F020EF09F023EF09F0ED
:101240002E6A4AEF09F02CC024F02D50010B256EB8
:1012500089EC08F02E6E2C28246ED8902D30010BCE
:10126000256E89EC08F02E6E2C50020F246E2D4056
:10127000E8423F0B010B256E89EC08F02E6E2C50D6
:10128000030F246E2D38E8461F0B010B256E89ECE9
:1012900008F02E6E2E5012002C50D8B452EF09F0E8
:1012A00054EF09F064EF09F02C50D96EDA6ADF30A0
:1012B000E832E832070B2D6E070E2D6462EF09F05D
:1012C00064EF09F067EF09F02E6A78EF09F02CC09F
:1012D00024F001EC08F02E6E2CC024F02C50D96EB6
:1012E000DA6A000EDFBE010E256E89EC08F02E6E64
:1012F0002E501200E9EC09F0336A1F0E2C6E33C039
:101300002DF010EC09F0040E326ECF0E316E020E8D
:10131000E82EFED7312EFCD7322EFAD7332A090E0B
:10132000336495EF09F097EF09F07DEF09F07CEF5A
:1013300009F0FEEF7FF02F50D8A4A1EF09F0A3EF42
:1013400009F0A5EF09F0BBEF09F02FC02CF04CEC31
:1013500009F0306E2F282C6E4CEC09F0306E2F50B7
:10136000020F2C6E4CEC09F0306E2F50030F2C6ED8
:101370004CEC09F0306E1200AE0EF66E130EF76EE6
:10138000000EF86E00EE01F010EE23F00900F5CF2C
:10139000EEFFE550E150FAE100EE33F0080EEE6AA0
:1013A000E806FDE1000EF86E00017AEF09F0800F0B
:1013B000810F820F830F840F890F8A0F8B0F8C0F81
:1013C0008D0F920F930F940F950F960F020A121A1A
:0113D000001C
:0A13D2001F0E2F6E9BEC09F01200B5
:04FFFC00BCEF09F05D
:020000040030CA
:0E000000FF02091EFF8181FF0FC00FE00F40BD
:00000001FF
