:04000000FEEF7FF0A0
:10100000003738392F3435362A3132332D23303DED
:101010002B0E0E1F1F1F1F1F000E0A1F1F1F1F1F3B
:10102000000E0A111F1F1F1F000E0A11111F1F1F84
:10103000000E0A1111111F1F000E0A111111111FAC
:0510400000256900001D
:10104600AAEC0CF01F0E486E010E496E140E4A6E85
:10105600390E4B6E000E4C6EE9EC0AF0020E516E24
:10106600040E506EBA0EE82EFED7502EFCD7512E27
:10107600FAD700D01F0E486E010E496E140E4A6E46
:10108600310E4B6E000E4C6EE9EC0AF0020E516EFC
:10109600040E506EBA0EE82EFED7502EFCD7512EF7
:1010A600FAD700D01F0E486E010E496E140E4A6E16
:1010B600290E4B6E000E4C6EE9EC0AF0020E516ED4
:1010C600040E506EBA0EE82EFED7502EFCD7512EC7
:1010D600FAD700D01F0E486E010E496E140E4A6EE6
:1010E600210E4B6E000E4C6EE9EC0AF0020E516EAC
:1010F600040E506EBA0EE82EFED7502EFCD7512E97
:10110600FAD700D01F0E486E010E496E140E4A6EB5
:10111600190E4B6E000E4C6EE9EC0AF0020E516E83
:10112600040E506EBA0EE82EFED7502EFCD7512E66
:10113600FAD700D01F0E486E010E496E140E4A6E85
:10114600110E4B6E000E4C6EE9EC0AF0020E516E5B
:10115600040E506EBA0EE82EFED7502EFCD7512E36
:10116600FAD700D025EF08F0FEEF7FF0010E356EBE
:101176002F50D8B4C1EF08F0C3EF08F0D3EF08F052
:101186002F50D96EDA6ADF30E832E832070B306E5C
:10119600070E3064D1EF08F0D3EF08F029EF09F01D
:1011A600356A3FEF09F02F50D96EDA6ADF30E83240
:1011B600E832070B306E010E316E302AE5EF08F08B
:1011C600D8903136302EE3EF08F03150FF0A326EF8
:1011D6002F50D96EDA6ADF50070B020DF350150F48
:1011E600D96EDA6ADECF33F0DDCF34F033C0D9FF03
:1011F60034C0DAFF3250DF163FEF09F02F50D96EB8
:10120600DA6ADF30E832E832070B306E010E316EF3
:10121600302A10EF09F0D8903136302E0EEF09F053
:101226002F50D96EDA6ADF50070B020DF350150FF7
:10123600D96EDA6ADECF32F0DDCF33F032C0D9FFB5
:1012460033C0DAFF3150DF123FEF09F02F50D96E6D
:10125600DA6ADFBC31EF09F034EF09F0010E35EF41
:1012660009F0000E000AD8B4D6EF08F0010AD8B487
:1012760001EF09F0D3EF08F035501200010E366E7B
:101286002F50D8B449EF09F04BEF09F05BEF09F0A6
:101296002F50D96EDA6ADF30E832E832070B316E4A
:1012A600070E316459EF09F05BEF09F0B1EF09F071
:1012B600366AC6EF09F02F50D96EDA6ADF30E832A7
:1012C600E832070B316E010E326E312A6DEF09F0EE
:1012D600D8903236312E6BEF09F03250FF0A336E5A
:1012E6002F50D96EDA6ADF50070B020DF3500B0F41
:1012F600D96EDA6ADECF34F0DDCF35F034C0D9FFEF
:1013060035C0DAFF3350DF16C6EF09F02F50D96E1D
:10131600DA6ADF30E832E832070B316E010E326EE0
:10132600312A98EF09F0D8903236312E96EF09F02F
:101336002F50D96EDA6ADF50070B020DF3500B0FF0
:10134600D96EDA6ADECF33F0DDCF34F033C0D9FFA1
:1013560034C0DAFF3250DF12C6EF09F03050316E7A
:10136600326A3250000AD8B4BBEF09F05BEF09F0DD
:101376003150000AD8B45EEF09F0010AD8B489EFFB
:1013860009F05BEF09F0365012003F50D8A4CEEFBB
:1013960009F0D0EF09F0D3EF09F0426A31EF0AF015
:1013A6003FC037F0C6EC0BF0426E3F28376EC6ECF6
:1013B6000BF0426E416A3F504124020F376EC6EC75
:1013C6000BF0412A070E4164EBEF09F0EDEF09F04F
:1013D600DEEF09F01A0E406EF80EE82EFED7402E0C
:1013E600FCD700D03FC039F0380E3A6E59EC0BF0FE
:1013F600070E406E7D0EE82EFED7402EFCD700006D
:101406003FC039F0380E3A6E59EC0BF0320EE82E2A
:10141600FED73FC039F0380E3A6E59EC0BF03FC09C
:1014260039F0010E3A6E59EC0BF03FC039F0020E5E
:101436003A6E59EC0BF03FC039F0060E3A6E59EC95
:101446000BF03FC039F00C0E3A6E59EC0BF03FC072
:1014560039F0380E3A6E59EC0BF0426E42501200DB
:101466003D50D8A439EF0AF03BEF0AF03EEF0AF000
:10147600406A9CEF0AF03DC037F0C6EC0BF0406EB8
:101486003D28376EC6EC0BF0406E3F6A3D503F2458
:10149600020F376EC6EC0BF03F2A030E3F6456EF81
:1014A6000AF058EF0AF049EF0AF01A0E3E6EF80EEF
:1014B600E82EFED73E2EFCD700D03DC03AF0380EBF
:1014C6003B6EF4EC0BF0070E3E6E7D0EE82EFED75B
:1014D6003E2EFCD700003DC03AF0380E3B6EF4ECD1
:1014E6000BF0320EE82EFED73DC03AF0380E3B6EBA
:1014F600F4EC0BF03DC03AF0010E3B6EF4EC0BF051
:101506003DC03AF0020E3B6EF4EC0BF03DC03AF0F3
:10151600060E3B6EF4EC0BF03DC03AF00C0E3B6E43
:10152600F4EC0BF03DC03AF0280E3B6EF4EC0BF0F9
:10153600406E40501200010E426E41063F50D8A444
:10154600A7EF0AF0A9EF0AF0D4EF0AF0426AE7EF34
:101556000AF03FC039F04150800F3A6E59EC0BF05B
:10156600426EE7EF0AF03FC039F04150C00F3A6EC5
:1015760059EC0BF0426EE7EF0AF03FC039F04150EC
:10158600940F3A6E59EC0BF0426EE7EF0AF03FC04B
:1015960039F04150D40F3A6E59EC0BF0426EE7EF3A
:1015A6000AF04050010AD8B4ACEF0AF0030AD8B4E6
:1015B600B6EF0AF0010AD8B4C0EF0AF0070AD8B4A9
:1015C600CAEF0AF0E7EF0AF0425012004850D8A4DA
:1015D600EFEF0AF0F1EF0AF0F4EF0AF04E6A20EFAF
:1015E6000BF048C039F04C50080DF350400F3A6EDE
:1015F60059EC0BF04F6A48C039F04B504F244D6EF2
:101606004DC0F6FF100EF76E0800F5CF3AF022EC4B
:101616000BF04F2A070E4F6413EF0BF015EF0BF08C
:10162600FEEF0AF048C043F049C044F04AC045F016
:101636004CC046F021EC0CF04E6E4E501200395064
:10164600D8A428EF0BF02AEF0BF02DEF0BF03D6A34
:1016560057EF0BF039C02FF0010E306E41EC09F058
:101666003E6A39503E24020F2F6E3EC03BF03AC010
:101676003CF03B2A41EF0BF0D8903C323B2E3FEF3B
:101686000BF03C50010B306E41EC09F03E2A070E80
:101696003E6450EF0BF052EF0BF034EF0BF039C015
:1016A60037F03EEC0CF03D6E3D5012003950D8A498
:1016B6005FEF0BF061EF0BF064EF0BF03D6A8EEF1E
:1016C6000BF039C02FF0000E306E41EC09F03E6A87
:1016D60039503E24020F2F6E3EC03BF03AC03CF01C
:1016E6003B2A78EF0BF0D8903C323B2E76EF0BF08E
:1016F6003C50010B306E41EC09F03E2A070E3E6469
:1017060087EF0BF089EF0BF06BEF0BF039C037F07A
:101716003EEC0CF03D6E3D5012003750D8A496EFCB
:101726000BF098EF0BF09BEF0BF0396AC4EF0BF060
:101736003750020F2F6E3850010B306E41EC09F016
:10174600396E3750030F2F6ED8903830010B306E3C
:1017560041EC09F0396E3750040F2F6E3840E842DD
:101766003F0B010B306E41EC09F0396E3750050F17
:101776002F6E3838E8461F0B010B306E41EC09F02E
:10178600396E395012003750D8B4CCEF0BF0CEEF8B
:101796000BF0DEEF0BF03750D96EDA6ADF30E83245
:1017A600E832070B386E070E3864DCEF0BF0DEEF1D
:1017B6000BF0E1EF0BF0396AF2EF0BF037C02FF0C8
:1017C600B9EC08F0396E37C02FF03750D96EDA6AA7
:1017D600000EDFBE010E306E41EC09F0396E395055
:1017E60012003A50D8A4FAEF0BF0FCEF0BF0FFEF23
:1017F6000BF03C6A1FEF0CF03AC02FF0000E306E73
:1018060041EC09F03C6E3A0E376E3B380F0B386EE2
:1018160090EC0BF03C6E3AC037F05BEC0CF03C6E93
:101826003A0E376E3BC038F090EC0BF03C6E3AC087
:1018360037F05BEC0CF03C6E3C5012004350D8A4E1
:1018460027EF0CF029EF0CF02CEF0CF0476A3CEF79
:101856000CF043C03FF044C040F045C041F09EEC60
:101866000AF0476E43C039F046C03AF022EC0BF05E
:10187600476E475012003750D8A444EF0CF046EF9D
:101886000CF049EF0CF0386A59EF0CF037282F6E40
:10189600010E306E41EC09F000D000D00000372870
:1018A6002F6E000E306E41EC09F0386E3850120083
:1018B6003750D8A461EF0CF063EF0CF066EF0CF034
:1018C600386A76EF0CF037282F6E010E306E41EC39
:1018D60009F000D000D0000037282F6E000E306EC1
:1018E60041EC09F0386E38501200260EF66E190ECD
:1018F600F76E000EF86E00EE01F010EE2EF0090005
:10190600F5CFEEFFE550E150FAE100EE52F0070E9A
:10191600EE6AE806FDE1000EF86E000123EF08F01E
:10192600800F810F820F830F840F890F8A0F8B0F11
:101936008C0F8D0F920F930F940F950F960F323ACF
:10194600030B131B232B333B020A121A222A290EDE
:101956003D6E33EC0AF0436E1F0E3F6EC8EC09F085
:04196600436E1200BA
:04FFFC0078EF0CF09E
:020000040030CA
:0E000000FF02091EFF8181FF0FC00FE00F40BD
:00000001FF
