:0400000007EF00F016
:0A00080001820BED08F0FDEF0DF092
:10100000003738392F3435362A3132332D23303DED
:051010002B2569000022
:101016000600FACF60F0FBCF61F0D9CF62F0DACFED
:1010260063F0F3CF64F0F4CF65F0F2A81DEF08F09B
:101036001FEF08F028EF08F0F2A224EF08F026EFE1
:1010460008F028EF08F089EC0EF0F0A62DEF08F076
:101056002FEF08F038EF08F0F0A034EF08F036EF85
:1010660008F038EF08F087EC0EF0F0A83DEF08F036
:101076003FEF08F048EF08F0F0A244EF08F046EF23
:1010860008F048EF08F085EC0EF0F2A64DEF08F0F8
:101096004FEF08F069EF08F0F2A054EF08F056EFB2
:1010A60008F069EF08F081A85BEF08F05DEF08F043
:1010B60069EF08F01904D8A463EF08F065EF08F0AB
:1010C60069EF08F0196A000EB4EC0CF0F2A66EEFA8
:1010D60008F070EF08F08AEF08F0F2A075EF08F05C
:1010E60077EF08F08AEF08F081B87CEF08F07EEF22
:1010F60008F08AEF08F01904D8A484EF08F086EF08
:1011060008F08AEF08F0196A010EB4EC0CF0F2A6AA
:101116008FEF08F091EF08F0ABEF08F0F2A096EF32
:1011260008F098EF08F0ABEF08F081AA9DEF08F001
:101136009FEF08F0ABEF08F01804D8A4A5EF08F06D
:10114600A7EF08F0ABEF08F0186A000E75EC0CF08C
:10115600F2A6B0EF08F0B2EF08F0CDEF08F0F2A07B
:10116600B7EF08F0B9EF08F0CDEF08F081BABEEF9F
:1011760008F0C0EF08F0CDEF08F01850D8A4C6EF7D
:1011860008F0C8EF08F0CDEF08F0010E186E010E5A
:1011960075EC0CF0F2A6D2EF08F0D4EF08F0EEEF03
:1011A60008F0F2A0D9EF08F0DBEF08F0EEEF08F058
:1011B60081ACE0EF08F0E2EF08F0EEEF08F017047C
:1011C600D8A4E8EF08F0EAEF08F0EEEF08F0176AA7
:1011D600000E36EC0CF0F2A6F3EF08F0F5EF08F08F
:1011E60010EF09F0F2A0FAEF08F0FCEF08F010EFAC
:1011F60009F081BC01EF09F003EF09F010EF09F0E7
:101206001750D8A409EF09F00BEF09F010EF09F019
:10121600010E176E010E36EC0CF0F2A615EF09F072
:1012260017EF09F031EF09F0F2A01CEF09F01EEFFD
:1012360009F031EF09F081AE23EF09F025EF09F04F
:1012460031EF09F01604D8A42BEF09F02DEF09F0C1
:1012560031EF09F0166A000EF7EC0BF0F2A636EF46
:1012660009F038EF09F053EF09F0F2A03DEF09F06D
:101276003FEF09F053EF09F081BE44EF09F046EF66
:1012860009F053EF09F01650D8A44CEF09F04EEFD1
:1012960009F053EF09F0010E166E010EF7EC0BF094
:1012A60065C0F4FF64C0F3FF63C0DAFF62C0D9FF14
:1012B60061C0FBFF60C0FAFF01921100010E000140
:1012C6008A6F6650D8B46AEF09F06CEF09F07CEFCC
:1012D60009F06650D96EDA6ADF30E832E832070B79
:1012E600686E070E68647AEF09F07CEF09F0D2EFBA
:1012F60009F08A6BE7EF09F06650D96EDA6ADF30DB
:10130600E832E832070B686E010E696E682A8EEFC6
:1013160009F0D8906936682E8CEF09F06950FF0AFB
:101326006A6E6650D96EDA6ADF50070B020DF3500B
:10133600020FD96EDA6ADECF6BF0DDCF6CF06BC0D0
:10134600D9FF6CC0DAFF6A50DF16E7EF09F0665086
:10135600D96EDA6ADF30E832E832070B686E010EC2
:10136600696E682AB9EF09F0D8906936682EB7EF2A
:1013760009F06650D96EDA6ADF50070B020DF3509A
:10138600020FD96EDA6ADECF6AF0DDCF6BF06AC083
:10139600D9FF6BC0DAFF6950DF12E7EF09F067503B
:1013A600686E696A6950000AD8B4DCEF09F07CEF10
:1013B60009F06850000AD8B47FEF09F0010AD8B4E2
:1013C600AAEF09F07CEF09F000018A511200010E24
:1013D6006C6E6650D8B4F2EF09F0F4EF09F004EF42
:1013E6000AF06650D96EDA6ADF30E832E832070B67
:1013F600676E070E676402EF0AF004EF0AF05AEF11
:101406000AF06C6A70EF0AF06650D96EDA6ADF305D
:10141600E832E832070B676E010E686E672A16EF30
:101426000AF0D8906836672E14EF0AF06850FF0A63
:10143600696E6650D96EDA6ADF50070B020DF350FB
:101446000C0FD96EDA6ADECF6AF0DDCF6BF06AC0B8
:10145600D9FF6BC0DAFF6950DF1670EF0AF06650ED
:10146600D96EDA6ADF30E832E832070B676E010EB2
:10147600686E672A41EF0AF0D8906836672E3FEF0C
:101486000AF06650D96EDA6ADF50070B020DF35088
:101496000C0FD96EDA6ADECF69F0DDCF6AF069C06B
:1014A600D9FF6AC0DAFF6850DF1270EF0AF06650A3
:1014B600D96EDA6ADFBC62EF0AF065EF0AF0010E58
:1014C60066EF0AF0000E000AD8B407EF0AF0010A28
:1014D600D8B432EF0AF004EF0AF06C501200535001
:1014E600D8B478EF0AF07AEF0AF08AEF0AF0535090
:1014F600D96EDA6ADF30E832E832070B556E070E2E
:10150600556488EF0AF08AEF0AF0DFEF0AF0F4EF8D
:101516000AF05350D96EDA6ADF30E832E832070B48
:10152600556E010E566E552A9BEF0AF0D890563628
:10153600552E99EF0AF05650FF0A576E5350D96E42
:10154600DA6ADF50070B020DF350020FD96EDA6A22
:10155600DECF58F0DDCF59F058C0D9FF59C0DAFFB9
:101566005750DF16F4EF0AF05350D96EDA6ADF30BF
:10157600E832E832070B556E010E566E552AC6EF55
:101586000AF0D8905636552EC4EF0AF05350D96E4D
:10159600DA6ADF50070B020DF350020FD96EDA6AD2
:1015A600DECF57F0DDCF58F057C0D9FF58C0DAFF6D
:1015B6005650DF12F4EF0AF05450556E566A5650E4
:1015C600000AD8B4E9EF0AF08AEF0AF05550000A8B
:1015D600D8B48CEF0AF0010AD8B4B7EF0AF08AEF54
:1015E6000AF0120000018A51D8A4FCEF0AF0FEEFBF
:1015F6000AF001EF0BF08B6B75EF0BF0F296F290A1
:10160600F28EF28C8A51040F666EEAEC09F0000144
:101616008B6F59EF0BF08A51D96EDA6ADECF44F040
:10162600DDCF45F08A51D96EDA6A020ED926DECFB1
:1016360042F0DDCF43F074EF0BF08A51D96EDA6ACF
:10164600DECF40F0DDCF41F08A51D96EDA6A020E64
:10165600D926DECF3EF0DDCF3FF074EF0BF08A5196
:10166600D96EDA6ADECF3CF0DDCF3DF08A51D96E15
:10167600DA6A020ED926DECF3AF0DDCF3BF074EF00
:101686000BF08A51D96EDA6ADECF38F0DDCF39F049
:101696008A51D96EDA6A020ED926DECF36F0DDCF50
:1016A60037F074EF0BF08B6B74EF0BF08A51D96E39
:1016B600DA6A040ED926DF30E832E832070B040A6C
:1016C600D8B40EEF0BF0010AD8B420EF0BF0030AE2
:1016D600D8B432EF0BF0010AD8B444EF0BF056EF52
:1016E6000BF0F2868B5112006650D8B47DEF0BF0EA
:1016F6007FEF0BF08FEF0BF06650D96EDA6ADF30B2
:10170600E832E832070B676E070E67648DEF0BF061
:101716008FEF0BF091EF0BF0B7EF0BF06650D96E31
:10172600DA6ADF30E832E832070B676E010E686E60
:10173600672AA0EF0BF0D8906836672E9EEF0BF065
:101746006650D96EDA6ADF50070B020DF350020FAE
:10175600D96EDA6ADECF69F0DDCF6AF069C0D9FFEB
:101766006AC0DAFF6850DF1A12008BEC0EF0350EF5
:1017760000018E6FF3EC0CF0340E00018E6FF3EC6B
:101786000CF0330E00018E6FF3EC0CF0330E0001FB
:101796008E6FF3EC0CF02C0E00018A6FF5EC0AF05C
:1017A600260E00018A6FF5EC0AF0200E00018A6F02
:1017B600F5EC0AF01A0E00018A6FF5EC0AF0320E0B
:1017C6006B6E2DEC0DF0020E0001936F450E926FBD
:1017D600A90EE82EFED7922FFCD7932FFAD700D06A
:1017E600E2EF0BF007EF00F05F6EF2905F50D8A4C7
:1017F600FFEF0BF001EF0CF018EF0CF0385039103A
:10180600D8B408EF0CF00AEF0CF035EF0CF002D864
:1018160016EF0CF00500FA6E3850FD6E3950FE6E6C
:10182600FF6AFA50120035EF0CF05F04D8A41EEFE1
:101836000CF020EF0CF035EF0CF036503710D8B422
:1018460027EF0CF029EF0CF035EF0CF002D835EF4E
:101856000CF00500FA6E3650FD6E3750FE6EFF6ACC
:10186600FA50120012005F6EF2905F50D8A43EEF5D
:101876000CF040EF0CF057EF0CF03C503D10D8B494
:1018860047EF0CF049EF0CF074EF0CF002D855EF6F
:101896000CF00500FA6E3C50FD6E3D50FE6EFF6A80
:1018A600FA50120074EF0CF05F04D8A45DEF0CF050
:1018B6005FEF0CF074EF0CF03A503B10D8B466EFC3
:1018C6000CF068EF0CF074EF0CF002D874EF0CF02B
:1018D6000500FA6E3A50FD6E3B50FE6EFF6AFA50F6
:1018E600120012005F6EF2905F50D8A47DEF0CF0EC
:1018F6007FEF0CF096EF0CF040504110D8B486EF15
:101906000CF088EF0CF0B3EF0CF002D894EF0CF06B
:101916000500FA6E4050FD6E4150FE6EFF6AFA50A9
:101926001200B3EF0CF05F04D8A49CEF0CF09EEF0E
:101936000CF0B3EF0CF03E503F10D8B4A5EF0CF00E
:10194600A7EF0CF0B3EF0CF002D8B3EF0CF00500E4
:10195600FA6E3E50FD6E3F50FE6EFF6AFA50120060
:1019660012005F6EF2905F50D8A4BCEF0CF0BEEF91
:101976000CF0D5EF0CF044504510D8B4C5EF0CF080
:10198600C7EF0CF0F2EF0CF002D8D3EF0CF0050025
:10199600FA6E4450FD6E4550FE6EFF6AFA50120014
:1019A600F2EF0CF05F04D8A4DBEF0CF0DDEF0CF0E7
:1019B600F2EF0CF042504310D8B4E4EF0CF0E6EF2F
:1019C6000CF0F2EF0CF002D8F2EF0CF00500FA6E14
:1019D6004250FD6E4350FE6EFF6AFA50120012002E
:1019E600010E0001906F8E51D8A4FCEF0CF0FEEFB3
:1019F6000CF001EF0DF0906B2AEF0DF052C091F054
:101A06008E51D96EDA6ADF500F0B8F6F91518F1995
:101A1600F80B8F19916F8E51D96EDA6ADF38070B82
:101A26008F6F8F478F478F4791518F19C70B8F192C
:101A3600916F919D8E51D96EDA6ADFAE02D0918F89
:101A460002D00001919F910E8B6FCCEC0DF000013E
:101A5600905112006B50D8A433EF0DF035EF0DF016
:101A660037EF0DF061EF0DF04FC08AF06B50D96E75
:101A7600DA6ADF500F0B6C6E00018A516C18F80B96
:101A86006C188A6F6B50D96EDA6ADF38070B6C6E8A
:101A96006C466C466C468A516C18C70B6C188A6F7C
:101AA6008A9D6B50D96EDA6ADFAE02D08A8F02D079
:101AB60000018A9F8A0E666E77EC0BF012005A5070
:101AC600D8A468EF0DF06AEF0DF06CEF0DF096EF0D
:101AD6000DF050C05CF05A50D96EDA6ADF500F0B29
:101AE6005B6E5C505B18F80B5B185C6E5A50D96ED7
:101AF600DA6ADF38070B5B6E5B465B465B465C501B
:101B06005B18C70B5B185C6E5C9C5A50D96EDA6A20
:101B1600DFAE02D05C8E01D05C9E5C0E536E000E72
:101B2600546E72EC0AF012005A50D8A49DEF0DF0D4
:101B36009FEF0DF0A1EF0DF0CBEF0DF051C05CF073
:101B46005A50D96EDA6ADF500F0B5B6E5C505B1829
:101B5600F80B5B185C6E5A50D96EDA6ADF38070BE1
:101B66005B6E5B465B465B465C505B18C70B5B185F
:101B76005C6E5C9C5A50D96EDA6ADFAE02D05C8E1F
:101B860001D05C9E5C0E536E010E546E72EC0AF030
:101B9600120000018B51D8B4D3EF0DF0D5EF0DF044
:101BA600E5EF0DF08B51D96EDA6ADF30E832E832B4
:101BB600070B8C6F070E8C65E3EF0DF0E5EF0DF06C
:101BC600E8EF0DF08D6BFBEF0DF08BC066F0EAECE5
:101BD60009F000018D6F8BC066F08B51D96EDA6A01
:101BE600000EDFBE010E676E61EC09F000018D6F1D
:101BF6008D511200C40EF66E1C0EF76E000EF86EB6
:101C060000EE80F010EE0AF00900F5CFEEFFE55089
:101C1600E150FAE1500EF66E1C0EF76E000EF86EED
:101C260000EE02F010EE34F00900F5CFEEFFE550BD
:101C3600E150FAE100EE36F01D0EEE6AE806FDE12F
:101C4600019001920001B8EF0BF0890F8A0F8B0FFC
:101C56008C0F8D0F920F930F940F950F960F010116
:101C66000101001DE21C7901EC1CCE1C7101F61C61
:101C7600D81C6901A41C841C610132221202340E94
:101C86005A6E97EC0DF0030E5E6E8A0E5D6E560E62
:101C9600E82EFED75D2EFCD75E2EFAD71200350E43
:101CA6005A6E97EC0DF0030E5E6E8A0E5D6E560E42
:101CB600E82EFED75D2EFCD75E2EFAD71200800FD7
:101CC600810F820F830F840F320E5A6E97EC0DF040
:101CD6001200340E5A6E62EC0DF01200320E5A6E7D
:101CE60062EC0DF01200330E5A6E97EC0DF01200F6
:101CF600350E5A6E62EC0DF01200330E5A6E62EC1F
:101D06000DF01200F0921200F0901200F292120002
:021D16001200B9
:020000040030CA
:0E000000FF02091EFF8181FF0FC00FE00F40BD
:00000001FF
