:0400000007EF00F016
:0A0008000182CEED0CF0FCEF14F0C5
:10100000003738392F3435362A3132332D23303DED
:051010002B2569000022
:10101600000E4E6E000E4F6E000E506E000E516E9C
:1010260029EF0AF0AC98AC94B8964B50D96EDA6AB0
:10103600DECF14F0DECF15F0DECF16F0DECF17F0E0
:10104600000E7BEC10F014C026F015C027F016C079
:1010560028F017C029F0000E226E240E236EF40E1F
:10106600246E4A0E256EB4EC0EF022C052F023C058
:1010760053F024C054F025C055F0000E266E000E25
:10108600276E800E286E420E296E52C022F053C083
:1010960023F054C024F055C025F0B4EC0EF022C065
:1010A6003BF023C03CF024C03DF025C03EF0000ECE
:1010B6003F6E000E406E800E416EBF0E426E73ECA8
:1010C6000AF03BC04EF03CC04FF03DC050F03EC071
:1010D60051F053EF0AF0AC98AC84B8964B50D96EE9
:1010E600DA6ADECF14F0DECF15F0DECF16F0DECFF3
:1010F60017F0000E7BEC10F014C026F015C027F098
:1011060016C028F017C029F0000E226E240E236E9A
:10111600F40E246E4A0E256EB4EC0EF022C052F088
:1011260023C053F024C054F025C055F0000E266E9F
:10113600000E276E800E286E410E296E52C022F0D8
:1011460053C023F054C024F055C025F0B4EC0EF083
:1011560022C03BF023C03CF024C03DF025C03EF049
:10116600000E3F6E000E406E800E416EBF0E426E48
:1011760073EC0AF03BC04EF03CC04FF03DC050F05F
:101186003EC051F053EF0AF0AC98AC94B8864B5081
:10119600D96EDA6ADECF14F0DECF15F0DECF16F0A8
:1011A600DECF17F0000E7BEC10F014C026F015C051
:1011B60027F016C028F017C029F0000E226E240E64
:1011C600236EF40E246E4A0E256EB4EC0EF022C089
:1011D60052F023C053F024C054F025C055F0000E41
:1011E600266E000E276E800E286E410E296E52C0A6
:1011F60022F053C023F054C024F055C025F0B4ECBF
:101206000EF022C03BF023C03CF024C03DF025C0C8
:101216003EF0000E3F6E000E406E800E416EBF0E19
:10122600426E73EC0AF03BC04EF03CC04FF03DC03E
:1012360050F03EC051F053EF0AF0AC98AC84B8863B
:101246004B50D96EDA6ADECF14F0DECF15F0DECF62
:1012560016F0DECF17F0000E7BEC10F014C026F06F
:1012660015C027F016C028F017C029F0000E226E10
:10127600240E236EF40E246E4A0E256EB4EC0EF088
:1012860022C052F023C053F024C054F025C055F0BC
:10129600000E266E000E276E800E286E400E296EFA
:1012A60052C022F053C023F054C024F055C025F09C
:1012B600B4EC0EF022C03BF023C03CF024C03DF05D
:1012C60025C03EF0000E3F6E000E406E800E416E51
:1012D600BF0E426E73EC0AF03BC04EF03CC04FF0BE
:1012E6003DC050F03EC051F053EF0AF0AC88B896BE
:1012F6004B50D96EDA6ADECF14F0DECF15F0DECFB2
:1013060016F0DECF17F0000E7BEC10F014C026F0BE
:1013160015C027F016C028F017C029F0000E226E5F
:10132600240E236EF40E246E4A0E256EB4EC0EF0D7
:1013360022C052F023C053F024C054F025C055F00B
:10134600000E266E000E276E800E286E400E296E49
:1013560052C022F053C023F054C024F055C025F0EB
:10136600B4EC0EF022C03BF023C03CF024C03DF0AC
:1013760025C03EF0000E3F6E000E406E800E416EA0
:10138600BF0E426E73EC0AF03BC04EF03CC04FF00D
:101396003DC050F03EC051F053EF0AF0AC88B8861D
:1013A6004B50D96EDA6ADECF14F0DECF15F0DECF01
:1013B60016F0DECF17F0000E7BEC10F014C026F00E
:1013C60015C027F016C028F017C029F0000E226EAF
:1013D600240E236EF40E246E4A0E256EB4EC0EF027
:1013E60022C052F023C053F024C054F025C055F05B
:1013F600000E266E000E276E800E286E400E296E99
:1014060052C022F053C023F054C024F055C025F03A
:10141600B4EC0EF022C03BF023C03CF024C03DF0FB
:1014260025C03EF0000E3F6E000E406E800E416EEF
:10143600BF0E426E73EC0AF03BC04EF03CC04FF05C
:101446003DC050F03EC051F053EF0AF04B50D96EFC
:10145600DA6A040ED926DF504C6E4D6A4D50000AEA
:10146600D8B438EF0AF053EF0AF04C50000AD8B45B
:1014760015EF08F0010AD8B46EEF08F0030AD8B4E5
:10148600C7EF08F0010AD8B420EF09F0070AD8B46C
:1014960079EF09F0010AD8B4D1EF09F053EF0AF059
:1014A6004EC014F04FC015F050C016F051C017F0E2
:1014B60064EC12F01450AF6E4EC014F04FC015F02D
:1014C60050C016F051C017F064EC12F015C014F0BD
:1014D60016C015F017C016F0176A1450B06E120039
:1014E6003E50800B476E3E503E24496E3DAE7EEF29
:1014F6000AF080EF0AF081EF0AF049804950D8B42B
:1015060087EF0AF089EF0AF09DEF0AF04928D8A480
:101516008FEF0AF091EF0AF099EF0AF0000E3B6E9A
:10152600000E3C6E000E3D6E000E3E6E3D8E3E6A17
:10153600A5EF0AF0000E3B6E000E3C6E000E3D6EEF
:10154600000E3E6E4250800B486E47504818D8B485
:10155600AFEF0AF0B1EF0AF0B2EF0AF0478C425053
:101566004224486E41AEBAEF0AF0BCEF0AF0BDEF76
:101576000AF048804850D8B4C3EF0AF0C5EF0AF025
:10158600D9EF0AF04828D8A4CBEF0AF0CDEF0AF03D
:10159600D5EF0AF0000E3F6E000E406E000E416E53
:1015A600000E426E418E426AE1EF0AF0000E3F6E77
:1015B600000E406E000E416E000E426E4950485CB1
:1015C600D8B0E8EF0AF0EAEF0AF011EF0BF047ACFB
:1015D600EFEF0AF0F1EF0AF0F3EF0AF0800E471A88
:1015E60049C04AF048C049F04AC048F03BC04AF0FA
:1015F6003FC03BF04AC03FF03CC04AF040C03CF020
:101606004AC040F03DC04AF041C03DF04AC041F0FA
:101616003EC04AF042C03EF04AC042F04A6A4950D3
:1016260048C043F0446A435E000E445A44BE25EF68
:101636000BF0445009E11A0E435CD8A025EF0BF0DD
:1016460027EF0BF05EEF0BF03B503C103D103E10C9
:10165600D8A430EF0BF033EF0BF0010E34EF0BF0A4
:10166600000E4A6E000E3B6E000E3C6E000E3D6E86
:10167600000E3E6E48C049F067EF0BF04AA046EFF9
:101686000BF048EF0BF04EEF0BF0D8904A30010903
:101696004A6E50EF0BF0D8904A323BA055EF0BF054
:1016A60057EF0BF058EF0BF04A8E3E343E323D3288
:1016B6003C323B32492A4850495CD8A065EF0BF0D2
:1016C60067EF0BF041EF0BF047BC6CEF0BF06EEFE2
:1016D6000BF0AEEF0BF04950D8A474EF0BF076EF99
:1016E6000BF080EF0BF0000E3B6E000E3C6E000E12
:1016F6003D6E000E3E6ECDEF0CF03F503B26405047
:101706003C2241503D2242503E223EA08DEF0BF03E
:101716008FEF0BF03BEF0CF04AA094EF0BF096EF37
:101726000BF09CEF0BF0D8904A3001094A6E9EEF01
:101736000BF0D8904A323BA0A3EF0BF0A5EF0BF0CD
:10174600A6EF0BF04A8E3E343E323D323C323B32FF
:10175600492A3BEF0CF03F503B5C40503C5841500F
:101766003D583E50800A436E4250800A4358D8B0D6
:10177600BFEF0BF0C1EF0BF0ECEF0BF03B503F5C13
:10178600436E3C504058446E3D504158456E3E5065
:101796004258466EFF0E43243B6EFF0E44203C6EBD
:1017A600FF0E45203D6EFF0E46203E6E800E471A08
:1017B6004A6C4A50D8A4E2EF0BF0E4EF0BF0F4EFDA
:1017C6000BF0010E3B26000E3C223D223E22F4EF9A
:1017D6000BF03F503B5E40503C5A41503D5A425000
:1017E6003E5A3B503C103D103E10D8A4FDEF0BF086
:1017F600FFEF0BF034EF0CF04A50D8A405EF0CF0D5
:1018060007EF0CF034EF0CF0000E3B6E000E3C6E52
:10181600000E3D6E000E3E6ECDEF0CF0D8903B36BE
:101826003C363D363E364AAE1BEF0CF01DEF0CF053
:101836001EEF0CF03B804AA023EF0CF025EF0CF0D6
:1018460029EF0CF0D8804A362BEF0CF0D8904A36A8
:101856004950D8B431EF0CF033EF0CF034EF0CF004
:1018660049063DAE39EF0CF03BEF0CF011EF0CF0F2
:10187600486A4AAE41EF0CF043EF0CF05BEF0CF018
:101886004AC043F07F0E4316D8B44CEF0CF04EEF2F
:101896000CF052EF0CF0010E486E5BEF0CF03BA023
:1018A60057EF0CF059EF0CF05BEF0CF04EEF0CF02D
:1018B6004850D8B461EF0CF063EF0CF08EEF0CF0EB
:1018C600010E3B26000E3C223D223E223EA06EEF3C
:1018D6000CF070EF0CF08EEF0CF03BC043F03CC008
:1018E60044F03DC045F03EC046F0463446324532EF
:1018F6004432433243C03BF044C03CF045C03DF067
:1019060046C03EF04928D8B48BEF0CF08DEF0CF0B2
:101916008EEF0CF0492A4928D8B494EF0CF096EFD4
:101926000CF09EEF0CF04950D8A49CEF0CF09EEF03
:101936000CF0AFEF0CF0000E3B6E000E3C6E000E8E
:101946003D6E000E3E6E4950D8A4ACEF0CF0AEEFE3
:101956000CF0AFEF0CF0476A49A0B4EF0CF0B6EF0D
:101966000CF0B9EF0CF03D8EBAEF0CF03D9ED8901E
:1019760049303E6E47AEC2EF0CF0C4EF0CF0C5EF37
:101986000CF03E8E3BC03BF03CC03CF03DC03DF011
:101996003EC03EF012000600FACF0EF0FBCF0FF06D
:1019A600D9CF10F0DACF11F0F3CF12F0F4CF13F055
:1019B600F2A8E0EF0CF0E2EF0CF0EBEF0CF0F2A285
:1019C600E7EF0CF0E9EF0CF0EBEF0CF012EC16F091
:1019D600F0A6F0EF0CF0F2EF0CF0FBEF0CF0F0A03D
:1019E600F7EF0CF0F9EF0CF0FBEF0CF010EC16F043
:1019F600F0A800EF0DF002EF0DF00BEF0DF0F0A2E6
:101A060007EF0DF009EF0DF00BEF0DF00EEC16F0F1
:101A1600F2A610EF0DF012EF0DF02CEF0DF0F2A084
:101A260017EF0DF019EF0DF02CEF0DF081A81EEF5A
:101A36000DF020EF0DF02CEF0DF06C04D8A426EF7E
:101A46000DF028EF0DF02CEF0DF06C6A000E0CEC8B
:101A560016F0F2A631EF0DF033EF0DF04DEF0DF06D
:101A6600F2A038EF0DF03AEF0DF04DEF0DF081B822
:101A76003FEF0DF041EF0DF04DEF0DF06C04D8A4E3
:101A860047EF0DF049EF0DF04DEF0DF06C6A010ECA
:101A96000CEC16F0F2A652EF0DF054EF0DF06EEFCF
:101AA6000DF0F2A059EF0DF05BEF0DF06EEF0DF0BB
:101AB60081AA60EF0DF062EF0DF06EEF0DF06B0492
:101AC600D8A468EF0DF06AEF0DF06EEF0DF06B6ABB
:101AD600000E0AEC16F0F2A673EF0DF075EF0DF09E
:101AE60090EF0DF0F2A07AEF0DF07CEF0DF090EF95
:101AF6000DF081BA81EF0DF083EF0DF090EF0DF050
:101B06006B50D8A489EF0DF08BEF0DF090EF0DF030
:101B1600010E6B6E010E0AEC16F0F2A695EF0DF0B3
:101B260097EF0DF0B1EF0DF0F2A09CEF0DF09EEFE8
:101B36000DF0B1EF0DF081ACA3EF0DF0A5EF0DF0B8
:101B4600B1EF0DF06A04D8A4ABEF0DF0ADEF0DF0D8
:101B5600B1EF0DF06A6A000E08EC16F0F2A6B6EFC9
:101B66000DF0B8EF0DF0D3EF0DF0F2A0BDEF0DF0D4
:101B7600BFEF0DF0D3EF0DF081BCC4EF0DF0C6EF53
:101B86000DF0D3EF0DF06A50D8A4CCEF0DF0CEEFE8
:101B96000DF0D3EF0DF0010E6A6E010E08EC16F093
:101BA600F2A6D8EF0DF0DAEF0DF0F4EF0DF0F2A09B
:101BB600DFEF0DF0E1EF0DF0F4EF0DF081AEE6EFA3
:101BC6000DF0E8EF0DF0F4EF0DF06904D8A4EEEF98
:101BD6000DF0F0EF0DF0F4EF0DF0696A000E06EC73
:101BE60016F0F2A6F9EF0DF0FBEF0DF016EF0EF082
:101BF600F2A000EF0EF002EF0EF016EF0EF081BE2F
:101C060007EF0EF009EF0EF016EF0EF06950D8A4AC
:101C16000FEF0EF011EF0EF016EF0EF0010E696EDB
:101C2600010E06EC16F09DAC1BEF0EF01DEF0EF04C
:101C360026EF0EF09EAC22EF0EF024EF0EF026EF0C
:101C46000EF01AEC16F0F2AA2BEF0EF02DEF0EF0B6
:101C560036EF0EF0F2A432EF0EF034EF0EF036EF60
:101C66000EF0F9EC15F09DA03BEF0EF03DEF0EF0F7
:101C760046EF0EF09EA042EF0EF044EF0EF046EF58
:101C86000EF0F3EC15F09DA24BEF0EF04DEF0EF0BB
:101C960056EF0EF09EA252EF0EF054EF0EF056EFF6
:101CA6000EF0FFEC15F0A0A25BEF0EF05DEF0EF06C
:101CB60066EF0EF0A1A262EF0EF064EF0EF066EF93
:101CC6000EF0EDEC15F09DA46BEF0EF06DEF0EF03F
:101CD60076EF0EF09EA472EF0EF074EF0EF076EF34
:101CE6000EF018EC16F0A0A07BEF0EF07DEF0EF0D4
:101CF60086EF0EF0A1A082EF0EF084EF0EF086EFD5
:101D06000EF016EC16F09DA88BEF0EF08DEF0EF090
:101D160096EF0EF09EA892EF0EF094EF0EF096EF6F
:101D26000EF014EC16F09DAA9BEF0EF09DEF0EF050
:101D3600A6EF0EF09EAAA2EF0EF0A4EF0EF0A6EF0D
:101D46000EF09FEC15F013C0F4FF12C0F3FF11C0A4
:101D5600DAFF10C0D9FF0FC0FBFF0EC0FAFF0192D9
:101D660011002550800B326E25502524396E24AE85
:101D7600BFEF0EF0C1EF0EF0C2EF0EF03980395012
:101D8600D8B4C8EF0EF0CAEF0EF0DEEF0EF0392829
:101D9600D8A4D0EF0EF0D2EF0EF0DAEF0EF0000E70
:101DA600226E000E236E000E246E000E256E248E0B
:101DB600256AE6EF0EF0000E226E000E236E000E70
:101DC600246E000E256E2950800B321A29502924C4
:101DD6003A6E28AEF1EF0EF0F3EF0EF0F4EF0EF0E0
:101DE6003A803A50D8B4FAEF0EF0FCEF0EF010EF4E
:101DF6000FF03A28D8A402EF0FF004EF0FF00CEF23
:101E06000FF0000E266E000E276E000E286E000ED6
:101E1600296E288E296A18EF0FF0000E266E000E26
:101E2600276E000E286E000E296E265027102810E9
:101E36002910D8A421EF0FF023EF0FF03BEF0FF09E
:101E4600000E226E000E236E000E246E000E256E0E
:101E5600800E24127F0E25123250251222C022F047
:101E660023C023F024C024F025C025F07AEF10F01B
:101E76003950D8A441EF0FF043EF0FF04DEF0FF0BC
:101E8600000E226E000E236E000E246E000E256ECE
:101E96007AEF10F03A5039C02AF02B6A2A5E000E0B
:101EA6002B5A7F0E2A24336E000E2B20346E22C04E
:101EB6002EF023C02FF024C030F025C031F0000EE4
:101EC600226E000E236E000E246E000E256E000E8E
:101ED600356E000E366E000E376E000E386E3A6A9C
:101EE600ADEF0FF03A50D8B47BEF0FF07DEF0FF067
:101EF60094EF0FF0D8902E362F3630363136D890F4
:101F0600223623362436253638AE8CEF0FF08EEF88
:101F16000FF08FEF0FF02280D890353636363736F1
:101F2600383626502E5C27502F58285030582950C6
:101F36003158D8A0A1EF0FF0A3EF0FF0ACEF0FF0E0
:101F4600388C26502E5E27502F5A2850305A29504A
:101F5600315A3A2A190E3A64B3EF0FF0B5EF0FF083
:101F660075EF0FF02E502F1030103110D8B4BEEF91
:101F76000FF0C0EF0FF0D8EF0FF03580D8EF0FF06D
:101F8600D890223623362436253638AECDEF0FF0DC
:101F9600CFEF0FF0D0EF0FF02280D89035363636DF
:101FA600373638363306D8A0340624AEDDEF0FF0C8
:101FB600DFEF0FF0C3EF0FF03A6A38AEE5EF0FF040
:101FC600E7EF0FF00BEF10F0FF0E35142A6EFF0E41
:101FD60036142B6EFF0E37142C6E7F0E38142D6EB2
:101FE6002A502B102C102D10D8B4FCEF0FF0FEEF5A
:101FF6000FF002EF10F0010E3A6E0BEF10F022A078
:1020060007EF10F009EF10F00BEF10F0FEEF0FF0F6
:102016003A50D8B411EF10F013EF10F037EF10F07C
:10202600010E2226000E23222422252225A01EEFA1
:1020360010F020EF10F037EF10F022C02AF023C086
:102046002BF024C02CF025C02DF02D342D322C324F
:102056002B322A322AC022F02BC023F02CC024F0C7
:102066002DC025F0334A342A34BE42EF10F03450E6
:1020760008E13328D8A042EF10F044EF10F04FEFFC
:1020860010F0000E346E3368000E226E000E236EC2
:10209600000E246E000E256E34BE5CEF10F0345038
:1020A60006E13304D8B05AEF10F05CEF10F068EF99
:1020B60010F0346A000E336E000E226E000E236E90
:1020C600000E246E000E256E326A33C039F039A038
:1020D6006FEF10F071EF10F074EF10F0248E75EFC3
:1020E60010F0249ED8903930256E2FEF0FF0120095
:1020F6001C6E1C50D8B482EF10F084EF10F0A6EFDF
:1021060010F017BE8BEF10F089EF10F0A6EF10F06D
:1021160014C018F015C019F016C01AF017C01BF03D
:10212600181E191E1A1E1B1E182A000E19221A2204
:102136001B2218C01EF019C01FF01AC020F01BC0C9
:1021460021F0AEEF10F014C01EF015C01FF016C03F
:1021560020F017C021F01450151016101710D8A42F
:10216600B7EF10F0B9EF10F0C3EF10F0000E146ED9
:10217600000E156E000E166E000E176E54EF11F05F
:10218600960E1D6ECDEF10F01D2AD890213220320A
:102196001F321E32000E1E14186E000E1F14196E0A
:1021A600000E20141A6EFE0E21141B6E1850191004
:1021B6001A101B10D8A4E2EF10F0E4EF10F0C7EFEE
:1021C60010F0F2EF10F01D2A010E1E26000E1F223F
:1021D60020222122D890213220321F321E32000EB8
:1021E6001E14186E000E1F14196E000E20141A6E9F
:1021F600FF0E21141B6E185019101A101B10D8A4AC
:1022060007EF11F009EF11F0E6EF10F011EF11F002
:102216001D06D8901E361F362036213620BE16EFF4
:1022260011F018EF11F020EF11F0020E1D601EEFF5
:1022360011F020EF11F00BEF11F01DB025EF11F0AA
:1022460027EF11F028EF11F0209ED8901D321DC007
:1022560018F0196A1A6A1B6A18C01BF01A6A196AFA
:10226600186A18501E1219501F121A5020121B50AD
:1022760021121C50D8B442EF11F044EF11F04CEF8C
:1022860011F017BE4BEF11F049EF11F04CEF11F0C2
:10229600218E1EC014F01FC015F020C016F021C0FC
:1022A60017F01200010E1A6E1450D8B45DEF11F03B
:1022B6005FEF11F06FEF11F01450D96EDA6ADF306C
:1022C600E832E832070B156E070E15646DEF11F054
:1022D6006FEF11F0C5EF11F01A6ADBEF11F0145031
:1022E600D96EDA6ADF30E832E832070B156E010E76
:1022F600166E152A81EF11F0D8901636152E7FEF3F
:1023060011F01650FF0A176E1450D96EDA6ADF50B4
:10231600070B020DF350C20FD96EDA6ADECF18F042
:10232600DDCF19F018C0D9FF19C0DAFF1750DF1634
:10233600DBEF11F01450D96EDA6ADF30E832E8329A
:10234600070B156E010E166E152AACEF11F0D8901C
:102356001636152EAAEF11F01450D96EDA6ADF5030
:10236600070B020DF350C20FD96EDA6ADECF17F0F3
:10237600DDCF18F017C0D9FF18C0DAFF1650DF12EC
:10238600DBEF11F01450D96EDA6ADFBCCDEF11F035
:10239600D0EF11F0010ED1EF11F0000E000AD8B403
:1023A60072EF11F0010AD8B49DEF11F06FEF11F042
:1023B6001A501200010E1B6E1450D8B4E5EF11F03E
:1023C600E7EF11F0F7EF11F01450D96EDA6ADF304B
:1023D600E832E832070B166E070E1664F5EF11F0B9
:1023E600F7EF11F04DEF12F01B6A62EF12F0145086
:1023F600D96EDA6ADF30E832E832070B166E010E64
:10240600176E162A09EF12F0D8901736162E07EF18
:1024160012F01750FF0A186E1450D96EDA6ADF50A0
:10242600070B020DF350B80FD96EDA6ADECF19F03A
:10243600DDCF1AF019C0D9FF1AC0DAFF1850DF161F
:1024460062EF12F01450D96EDA6ADF30E832E83201
:10245600070B166E010E176E162A34EF12F0D8907F
:102466001736162E32EF12F01450D96EDA6ADF5094
:10247600070B020DF350B80FD96EDA6ADECF18F0EB
:10248600DDCF19F018C0D9FF19C0DAFF1750DF12D7
:1024960062EF12F01550166E176A1750000AD8B47C
:1024A60057EF12F0F7EF11F01650000AD8B4FAEF12
:1024B60011F0010AD8B425EF12F0F7EF11F01B5016
:1024C6001200163417341D6E1D50D8A46DEF12F08D
:1024D6006FEF12F079EF12F0000E146E000E156E0B
:1024E600000E166E000E176EE6EF12F014C018F00E
:1024F60015C019F016C01AF017C01BF0200E89EF90
:1025060012F0D8901B321A3219321832E82E84EFA4
:1025160012F018501C6E168EFF0E1416FF0E1516AE
:10252600FF0E1616000E1716960E1D5E1DBEA0EFA8
:1025360012F09EEF12F0B6EF12F01D50800A970FC0
:10254600D8B0A8EF12F0AAEF12F0ACEF12F06FEFCE
:1025560012F0D89017321632153214321D3EACEFF7
:1025660012F0CEEF12F01F0E1D64BCEF12F0BEEF9C
:1025760012F0C6EF12F06FEF12F0D890143615363F
:10258600163617361D061D50D8A4CCEF12F0CEEF26
:1025960012F0C0EF12F01C50D8B4D4EF12F0D6EF00
:1025A60012F0DEEF12F0171E161E151E146C000E2A
:1025B60015221622172214C014F015C015F016C0E5
:1025C60016F017C017F012000250D8B4EDEF12F053
:1025D600EFEF12F0FFEF12F00250D96EDA6ADF3039
:1025E600E832E832070B046E070E0464FDEF12F0C2
:1025F600FFEF12F054EF13F069EF13F00250D96EAB
:10260600DA6ADF30E832E832070B046E010E056E37
:10261600042A10EF13F0D8900536042E0EEF13F0AF
:102626000550FF0A066E0250D96EDA6ADF50070BB4
:10263600020DF350B80FD96EDA6ADECF07F0DDCFA0
:1026460008F007C0D9FF08C0DAFF0650DF1669EFA9
:1026560013F00250D96EDA6ADF30E832E832070B3F
:10266600046E010E056E042A3BEF13F0D890053672
:10267600042E39EF13F00250D96EDA6ADF50070BD9
:10268600020DF350B80FD96EDA6ADECF06F0DDCF51
:1026960007F006C0D9FF07C0DAFF0550DF1269EF61
:1026A60013F00350046E056A0550000AD8B45EEFB5
:1026B60013F0FFEF12F00450000AD8B401EF13F044
:1026C600010AD8B42CEF13F0FFEF12F012001450E9
:1026D600D96EDA6A080ED926DFA074EF13F076EF0A
:1026E60013F0CDEF13F0AB881450D96EDA6A0C0EE6
:1026F600D926DECF84F0DDCF85F01450D96EDA6AA4
:102706000E0ED926DECF82F0DDCF83F01450D96EBF
:10271600DA6A100ED926DECF80F0DDCF81F01450B4
:10272600D96EDA6A080ED926DFA29CEF13F09EEF67
:1027360013F0A4EF13F09D8A9D8AF28EF28CB1EF0E
:1027460013F01450D96EDA6A080ED926DFB2AEEF4E
:1027560013F0B0EF13F0B1EF13F09D9A1450D96E49
:10276600DA6A080ED926DFA4BBEF13F0BDEF13F02B
:10277600C0EF13F0AB8CCDEF13F01450D96EDA6ABC
:10278600080ED926DFB4CAEF13F0CCEF13F0CDEF65
:1027960013F0AB9C12001450D96EDA6A060ED926D5
:1027A600DFA0D8EF13F0DAEF13F01FEF14F0AC8AC6
:1027B6001450D96EDA6A0A0ED926DECF86F0DDCF3E
:1027C60087F01450D96EDA6A060ED926DFA2EEEF2C
:1027D60013F0F0EF13F0F6EF13F09D889D88F28E5C
:1027E600F28C03EF14F01450D96EDA6A060ED9266D
:1027F600DFB200EF14F002EF14F003EF14F09D982F
:102806001450D96EDA6A060ED926DFA40DEF14F03D
:102816000FEF14F012EF14F0AC8C1FEF14F01450FD
:10282600D96EDA6A060ED926DFB41CEF14F01EEF55
:1028360014F01FEF14F0AC9C1200680E026EC5EC8B
:1028460015F07A0E6818D8A42BEF14F02DEF14F0BB
:102856003FEF14F06D0E096E92EC14F0790ED4EC85
:1028660015F0060E0D6E130E0C6EAE0EE82EFED78C
:102876000C2EFCD70D2EFAD7780E6818D8A446EF82
:1028860014F048EF14F05AEF14F06D0E096EC7EC11
:1028960014F0770ED4EC15F0060E0D6E130E0C6EBA
:1028A600AE0EE82EFED70C2EFCD70D2EFAD7120050
:1028B600010E216E1F50D8A463EF14F065EF14F0DB
:1028C60068EF14F0216A90EF14F067C022F01F50F1
:1028D600D96EDA6ADF500F0B206E22502018F80BE3
:1028E6002018226E1F50D96EDA6ADF38070B206E69
:1028F60020462046204622502018C70B2018226E5C
:10290600229C1F50D96EDA6ADFAE02D0228E01D029
:10291600229E220E1C6E2DEC15F02150120009503D
:10292600D8A498EF14F09AEF14F09CEF14F0C6EFC9
:1029360014F066C00BF00950D96EDA6ADF500F0B3F
:102946000A6E0B500A18F80B0A180B6E0950D96E4E
:10295600DA6ADF38070B0A6E0A460A460A460B5041
:102966000A18C70B0A180B6E0B9C0950D96EDA6A47
:10297600DFAE02D00B8E01D00B9E0B0E026E010E47
:10298600036EE7EC12F012000950D8A4CDEF14F054
:10299600CFEF14F0D1EF14F0FBEF14F065C00BF09D
:1029A6000950D96EDA6ADF500F0B0A6E0B500A18FF
:1029B600F80B0A180B6E0950D96EDA6ADF38070B66
:1029C6000A6E0A460A460A460B500A18C70B0A1828
:1029D6000B6E0B9C0950D96EDA6ADFAE02D00B8EF5
:1029E60001D00B9E0B0E026E000E036EE7EC12F08A
:1029F60012006C0EF66E2B0EF76E000EF86E00EEE1
:102A0600AEF010EE1EF00900F5CFEEFFE550E150F6
:102A1600FAE1060EF66E2C0EF76E000EF86E00EE5C
:102A260069F010EE05F00900F5CFEEFFE550E15034
:102A3600FAE100EE80F02E0EEE6AE806FDE100EE09
:102A460058F0110EEE6AE806FDE1019001920001D0
:102A5600E1EF15F01C50D8B433EF15F035EF15F053
:102A660045EF15F01C50D96EDA6ADF30E832E832ED
:102A7600070B1D6E070E1D6443EF15F045EF15F0AD
:102A860048EF15F01E6A59EF15F01CC014F055EC0E
:102A960011F01E6E1CC014F01C50D96EDA6A000EBE
:102AA600DFBE010E156EDDEC11F01E6E1E5012001B
:102AB600800E0001CC6F250ECD6F000ECE6F000E7E
:102AC600CF6FD06BD281D283D295D481D483D49563
:102AD600000ED66F000ED76F400ED86F280ED96F36
:102AE600000EDA6F000EDB6F000EDC6F000EDD6F7E
:102AF600CC0E566E80EC15F012005650D8A486EF18
:102B060015F088EF15F08BEF15F0576A9DEF15F06D
:102B1600AB9E948E948C56C04BF00BEC08F056C0CE
:102B260014F0CEEC13F056C014F06AEC13F0AB8E32
:102B3600010E576E57501200000184518511D8B40A
:102B4600A7EF15F0A9EF15F0B5EF15F002D8B5EF20
:102B560015F00500FA6E8451FD6E8551FE6EFF6A12
:102B6600FA5012001200800F810F820F830F840F1C
:102B7600890F8A0F8B0F8C0F8D0F920F930F940F67
:102B8600950F960F9EAACAEF15F0CCEF15F0D3EF6E
:102B960015F00250D96EDA6AAECFDFFFD3EF15F02B
:102BA6001200026EACA2DAEF15F0DCEF15F0D5EFED
:102BB60015F09D8802C0ADFF010E12001CEC16F048
:102BC6005BEC15F06D0E1F6E5BEC14F0E9EF15F083
:102BD60007EF00F0A1925B50B36E5AC0B2FF12002D
:102BE6009E905D50CF6E5CC0CEFF1200F2945F5097
:102BF600D76E5EC0D6FF12009E9260C0CCFF120058
:052C06000101010103C2
:102C0C00F2901200F2901200F2901200F290120068
:102C1C00F0921200F0901200F29212009D981200A5
:0E2C2C00A19012009E9412009E9C12001200B5
:020000040030CA
:0E000000FF02091EFF8181FF0FC00FE00F40BD
:00000001FF
