:0400000007EF00F016
:0A000800018266ED0AF076EF10F0B9
:10100000003738392F3435362A3132332D23303DED
:051010002B2569000022
:101016002F50800B386E2F502F243A6E2EAE16EFBF
:1010260008F018EF08F019EF08F03A803A50D8B4F3
:101036001FEF08F021EF08F035EF08F03A28D8A4A2
:1010460027EF08F029EF08F031EF08F0000E2C6EBC
:10105600000E2D6E000E2E6E000E2F6E2E8E2F6A37
:101066003DEF08F0000E2C6E000E2D6E000E2E6E5B
:10107600000E2F6E3350800B396E38503918D8B4A5
:1010860047EF08F049EF08F04AEF08F0388C335084
:101096003324396E32AE52EF08F054EF08F055EFB4
:1010A60008F039803950D8B45BEF08F05DEF08F0EE
:1010B60071EF08F03928D8A463EF08F065EF08F05F
:1010C6006DEF08F0000E306E000E316E000E326EBF
:1010D600000E336E328E336A79EF08F0000E306EF2
:1010E600000E316E000E326E000E336E3A50395CD1
:1010F600D8B080EF08F082EF08F0A9EF08F038AC1E
:1011060087EF08F089EF08F08BEF08F0800E381AA9
:101116003AC03BF039C03AF03BC039F02CC03BF046
:1011260030C02CF03BC030F02DC03BF031C02DF06C
:101136003BC031F02EC03BF032C02EF03BC032F047
:101146002FC03BF033C02FF03BC033F03B6A3A5020
:1011560039C034F0356A345E000E355A35BEBDEFFF
:1011660008F0355009E11A0E345CD8A0BDEF08F03E
:10117600BFEF08F0F6EF08F02C502D102E102F10B0
:10118600D8A4C8EF08F0CBEF08F0010ECCEF08F0BA
:10119600000E3B6E000E2C6E000E2D6E000E2E6E97
:1011A600000E2F6E39C03AF0FFEF08F03BA0DEEFDD
:1011B60008F0E0EF08F0E6EF08F0D8903B300109C0
:1011C6003B6EE8EF08F0D8903B322CA0EDEF08F02C
:1011D600EFEF08F0F0EF08F03B8E2F342F322E326F
:1011E6002D322C323A2A39503A5CD8A0FDEF08F05D
:1011F600FFEF08F0D9EF08F038BC04EF09F006EF6E
:1012060009F046EF09F03A50D8A40CEF09F00EEFBA
:1012160009F018EF09F0000E2C6E000E2D6E000E70
:101226002E6E000E2F6E65EF0AF030502C263150D0
:101236002D2232502E2233502F222FA025EF09F0D7
:1012460027EF09F0D3EF09F03BA02CEF09F02EEFC2
:1012560009F034EF09F0D8903B3001093B6E36EFC8
:1012660009F0D8903B322CA03BEF09F03DEF09F096
:101276003EEF09F03B8E2F342F322E322D322C3298
:101286003A2AD3EF09F030502C5C31502D583250A9
:101296002E582F50800A346E3350800A3458D8B0F6
:1012A60057EF09F059EF09F084EF09F02C50305C44
:1012B600346E2D503158356E2E503258366E2F50B2
:1012C6003358376EFF0E34242C6EFF0E35202D6EEC
:1012D600FF0E36202E6EFF0E37202F6E800E381A28
:1012E6003B6C3B50D8A47AEF09F07CEF09F08CEF09
:1012F60009F0010E2C26000E2D222E222F228CEF15
:1013060009F030502C5E31502D5A32502E5A33503F
:101316002F5A2C502D102E102F10D8A495EF09F00F
:1013260097EF09F0CCEF09F03B50D8A49DEF09F0F8
:101336009FEF09F0CCEF09F0000E2C6E000E2D6E1B
:10134600000E2E6E000E2F6E65EF0AF0D8902C362A
:101356002D362E362F363BAEB3EF09F0B5EF09F03A
:10136600B6EF09F02C803BA0BBEF09F0BDEF09F00A
:10137600C1EF09F0D8803B36C3EF09F0D8903B3671
:101386003A50D8B4C9EF09F0CBEF09F0CCEF09F029
:101396003A062EAED1EF09F0D3EF09F0A9EF09F026
:1013A600396A3BAED9EF09F0DBEF09F0F3EF09F04C
:1013B6003BC034F07F0E3416D8B4E4EF09F0E6EF04
:1013C60009F0EAEF09F0010E396EF3EF09F02CA0EF
:1013D600EFEF09F0F1EF09F0F3EF09F0E6EF09F0AE
:1013E6003950D8B4F9EF09F0FBEF09F026EF0AF00F
:1013F600010E2C26000E2D222E222F222FA006EFC4
:101406000AF008EF0AF026EF0AF02CC034F02DC0DF
:1014160035F02EC036F02FC037F03734373236323B
:101426003532343234C02CF035C02DF036C02EF0B3
:1014360037C02FF03A28D8B423EF0AF025EF0AF088
:1014460026EF0AF03A2A3A28D8B42CEF0AF02EEF03
:101456000AF036EF0AF03A50D8A434EF0AF036EF25
:101466000AF047EF0AF0000E2C6E000E2D6E000EED
:101476002E6E000E2F6E3A50D8A444EF0AF046EFB7
:101486000AF047EF0AF0386A3AA04CEF0AF04EEF3E
:101496000AF051EF0AF02E8E52EF0AF02E9ED890E7
:1014A6003A302F6E38AE5AEF0AF05CEF0AF05DEF75
:1014B6000AF02F8E2CC02CF02DC02DF02EC02EF051
:1014C6002FC02FF012000600FACF03F0FBCF04F076
:1014D600F2A870EF0AF072EF0AF07BEF0AF0F2A2C0
:1014E60077EF0AF079EF0AF07BEF0AF04AEC11F099
:1014F600F0A680EF0AF082EF0AF08BEF0AF0F0A078
:1015060087EF0AF089EF0AF08BEF0AF048EC11F04A
:10151600F0A890EF0AF092EF0AF09BEF0AF0F0A223
:1015260097EF0AF099EF0AF09BEF0AF046EC11F0FC
:10153600F2A6A0EF0AF0A2EF0AF0BCEF0AF0F2A0C2
:10154600A7EF0AF0A9EF0AF0BCEF0AF081A8AEEF08
:101556000AF0B0EF0AF0BCEF0AF07C04D8A4B6EFAC
:101566000AF0B8EF0AF0BCEF0AF07C6A000E40EC15
:1015760011F0F2A6C1EF0AF0C3EF0AF0DDEF0AF0B0
:10158600F2A0C8EF0AF0CAEF0AF0DDEF0AF081B860
:10159600CFEF0AF0D1EF0AF0DDEF0AF07C04D8A411
:1015A600D7EF0AF0D9EF0AF0DDEF0AF07C6A010EF8
:1015B60040EC11F0F2A6E2EF0AF0E4EF0AF0FEEFDB
:1015C6000AF0F2A0E9EF0AF0EBEF0AF0FEEF0AF0FC
:1015D60081AAF0EF0AF0F2EF0AF0FEEF0AF07B04C0
:1015E600D8A4F8EF0AF0FAEF0AF0FEEF0AF07B6AE9
:1015F600000E3EEC11F0F2A603EF0BF005EF0BF038
:1016060020EF0BF0F2A00AEF0BF00CEF0BF020EF3F
:101616000BF081BA11EF0BF013EF0BF020EF0BF08C
:101626007B50D8A419EF0BF01BEF0BF020EF0BF05B
:10163600010E7B6E010E3EEC11F0F2A625EF0BF0CB
:1016460027EF0BF041EF0BF0F2A02CEF0BF02EEF93
:101656000BF041EF0BF081AC33EF0BF035EF0BF0F5
:1016660041EF0BF07A04D8A43BEF0BF03DEF0BF003
:1016760041EF0BF07A6A000E3CEC11F0F2A646EF51
:101686000BF048EF0BF063EF0BF0F2A04DEF0BF011
:101696004FEF0BF063EF0BF081BC54EF0BF056EFFE
:1016A6000BF063EF0BF07A50D8A45CEF0BF05EEF13
:1016B6000BF063EF0BF0010E7A6E010E3CEC11F0AD
:1016C600F2A668EF0BF06AEF0BF084EF0BF0F2A0D6
:1016D6006FEF0BF071EF0BF084EF0BF081AE76EF4E
:1016E6000BF078EF0BF084EF0BF07904D8A47EEFC3
:1016F6000BF080EF0BF084EF0BF0796A000E3AECFA
:1017060011F0F2A689EF0BF08BEF0BF0A6EF0BF0C2
:10171600F2A090EF0BF092EF0BF0A6EF0BF081BE6C
:1017260097EF0BF099EF0BF0A6EF0BF07950D8A4DA
:101736009FEF0BF0A1EF0BF0A6EF0BF0010E796E09
:10174600010E3AEC11F09DACABEF0BF0ADEF0BF0E8
:10175600B6EF0BF09EACB2EF0BF0B4EF0BF0B6EFBA
:101766000BF052EC11F0F2AABBEF0BF0BDEF0BF051
:10177600C6EF0BF0F2A4C2EF0BF0C4EF0BF0C6EF0E
:101786000BF027EC11F09DA0CBEF0BF0CDEF0BF09B
:10179600D6EF0BF09EA0D2EF0BF0D4EF0BF0D6EF06
:1017A6000BF021EC11F09DA2DBEF0BF0DDEF0BF05F
:1017B600E6EF0BF09EA2E2EF0BF0E4EF0BF0E6EFA4
:1017C6000BF033EC11F0A0A2EBEF0BF0EDEF0BF00A
:1017D600F6EF0BF0A1A2F2EF0BF0F4EF0BF0F6EF41
:1017E6000BF01BEC11F09DA4FBEF0BF0FDEF0BF0E3
:1017F60006EF0CF09EA402EF0CF004EF0CF006EFDF
:101806000CF050EC11F0A0A00BEF0CF00DEF0CF06B
:1018160016EF0CF0A1A012EF0CF014EF0CF016EF7F
:101826000CF04EEC11F09DA81BEF0CF01DEF0CF028
:1018360026EF0CF09EA822EF0CF024EF0CF026EF1A
:101846000CF04CEC11F09DAA2BEF0CF02DEF0CF0E8
:1018560036EF0CF09EAA32EF0CF034EF0CF036EFB8
:101866000CF056EC11F09DA63BEF0CF03DEF0CF0A2
:1018760046EF0CF09EA642EF0CF044EF0CF046EF5C
:101886000CF055EC11F09DA64BEF0CF04DEF0CF063
:1018960056EF0CF09EA652EF0CF054EF0CF056EFFC
:1018A6000CF0E8EC10F0A0A65BEF0CF05DEF0CF08E
:1018B60066EF0CF0A1A662EF0CF064EF0CF066EF99
:1018C6000CF044EC11F004C0FBFF03C0FAFF0192D8
:1018D60011001650800B236E165016242A6E15AE74
:1018E60077EF0CF079EF0CF07AEF0CF02A802A50A3
:1018F600D8B480EF0CF082EF0CF096EF0CF02A28AB
:10190600D8A488EF0CF08AEF0CF092EF0CF0000EE2
:10191600136E000E146E000E156E000E166E158EEA
:10192600166A9EEF0CF0000E136E000E146E000E7B
:10193600156E000E166E1A50800B231A1A501A24B2
:101946002B6E19AEA9EF0CF0ABEF0CF0ACEF0CF070
:101956002B802B50D8B4B2EF0CF0B4EF0CF0C8EFDC
:101966000CF02B28D8A4BAEF0CF0BCEF0CF0C4EFA7
:101976000CF0000E176E000E186E000E196E000E9B
:101986001A6E198E1A6AD0EF0CF0000E176E000E42
:10199600186E000E196E000E1A6E175018101910D8
:1019A6001A10D8A4D9EF0CF0DBEF0CF0F3EF0CF023
:1019B600000E136E000E146E000E156E000E166EDF
:1019C600800E15127F0E16122350161213C013F036
:1019D60014C014F015C015F016C016F032EF0EF054
:1019E6002A50D8A4F9EF0CF0FBEF0CF005EF0DF040
:1019F600000E136E000E146E000E156E000E166E9F
:101A060032EF0EF02B502AC01BF01C6A1B5E000E34
:101A16001C5A7F0E1B24246E000E1C20256E13C03C
:101A26001FF014C020F015C021F016C022F0000EE1
:101A3600136E000E146E000E156E000E166E000E5E
:101A4600266E000E276E000E286E000E296E2B6A7B
:101A560065EF0DF02B50D8B433EF0DF035EF0DF0E8
:101A66004CEF0DF0D8901F36203621362236D8900E
:101A7600133614361536163629AE44EF0DF046EFFA
:101A86000DF047EF0DF01380D8902636273628360E
:101A9600293617501F5C18502058195021581A50D3
:101AA6002258D8A059EF0DF05BEF0DF064EF0DF062
:101AB600298C17501F5E1850205A1950215A1A5057
:101AC600225A2B2A190E2B646BEF0DF06DEF0DF0D9
:101AD6002DEF0DF01F50201021102210D8B476EFF4
:101AE6000DF078EF0DF090EF0DF0268090EF0DF0F1
:101AF600D890133614361536163629AE85EF0DF006
:101B060087EF0DF088EF0DF01380D8902636273634
:101B1600283629362406D8A0250615AE95EF0DF0F1
:101B260097EF0DF07BEF0DF02B6A29AE9DEF0DF0D0
:101B36009FEF0DF0C3EF0DF0FF0E26141B6EFF0E88
:101B460027141C6EFF0E28141D6E7F0E29141E6EA0
:101B56001B501C101D101E10D8B4B4EF0DF0B6EFBC
:101B66000DF0BAEF0DF0010E2B6EC3EF0DF013A0C2
:101B7600BFEF0DF0C1EF0DF0C3EF0DF0B6EF0DF0B6
:101B86002B50D8B4C9EF0DF0CBEF0DF0EFEF0DF001
:101B9600010E1326000E14221522162216A0D6EFC9
:101BA6000DF0D8EF0DF0EFEF0DF013C01BF014C0E1
:101BB6001CF015C01DF016C01EF01E341E321D325C
:101BC6001C321B321BC013F01CC014F01DC015F0D4
:101BD6001EC016F0244A252A25BEFAEF0DF0255020
:101BE60008E12428D8A0FAEF0DF0FCEF0DF007EF7E
:101BF6000EF0000E256E2468000E136E000E146E95
:101C0600000E156E000E166E25BE14EF0EF0255052
:101C160006E12404D8B012EF0EF014EF0EF020EF18
:101C26000EF0256A000E246E000E136E000E146E62
:101C3600000E156E000E166E236A24C02AF02AA026
:101C460027EF0EF029EF0EF02CEF0EF0158E2DEF8C
:101C56000EF0159ED8902A30166EE7EF0CF01200A3
:101C66000D6E0D50D8B43AEF0EF03CEF0EF05EEF6D
:101C76000EF008BE43EF0EF041EF0EF05EEF0EF0F1
:101C860005C009F006C00AF007C00BF008C00CF04A
:101C9600091E0A1E0B1E0C1E092A000E0A220B2202
:101CA6000C2209C00FF00AC010F00BC011F00CC0D6
:101CB60012F066EF0EF005C00FF006C010F007C078
:101CC60011F008C012F00550061007100810D8A42D
:101CD6006FEF0EF071EF0EF07BEF0EF0000E056E5B
:101CE600000E066E000E076E000E086E0CEF0FF06B
:101CF600960E0E6E85EF0EF00E2AD8901232113225
:101D060010320F32000E0F14096E000E10140A6EF8
:101D1600000E11140B6EFE0E12140C6E09500A10F2
:101D26000B100C10D8A49AEF0EF09CEF0EF07FEF7C
:101D36000EF0AAEF0EF00E2A010E0F26000E10224C
:101D460011221222D8901232113210320F32000EA6
:101D56000F14096E000E10140A6E000E11140B6E8D
:101D6600FF0E12140C6E09500A100B100C10D8A49A
:101D7600BFEF0EF0C1EF0EF09EEF0EF0C9EF0EF0C2
:101D86000E06D8900F3610361136123611BECEEF2B
:101D96000EF0D0EF0EF0D8EF0EF0020E0E60D6EF7A
:101DA6000EF0D8EF0EF0C3EF0EF00EB0DDEF0EF032
:101DB600DFEF0EF0E0EF0EF0119ED8900E320EC05F
:101DC60009F00A6A0B6A0C6A09C00CF00B6A0A6A07
:101DD600096A09500F120A5010120B5011120C50BA
:101DE60012120D50D8B4FAEF0EF0FCEF0EF004EF1D
:101DF6000FF008BE03EF0FF001EF0FF004EF0FF046
:101E0600128E0FC005F010C006F011C007F012C008
:101E160008F012000001CA51D8A414EF0FF016EF13
:101E26000FF019EF0FF0CB6BA5EF0FF0C69ACA5162
:101E3600D96EDA6A060ED926DFA024EF0FF026EF58
:101E46000FF02CEF0FF0CAC046F02AEC10F062EF4C
:101E56000FF0CA51D96EDA6A060ED926DFB036EF10
:101E66000FF038EF0FF062EF0FF0CA51D96EDA6A51
:101E7600060ED926DFA642EF0FF044EF0FF047EF2C
:101E86000FF0C58E54EF0FF0CA51D96EDA6A060EFE
:101E9600D926DFB651EF0FF053EF0FF054EF0FF0E6
:101EA600C59EC69EC69CC688CA51D96EDA6A050EFC
:101EB600D926DF50C86ECAC005F00EEC11F037EC1B
:101EC60011F00001CA51D96EDA6A060ED926DFA2D0
:101ED6006FEF0FF071EF0FF074EF0FF0C78E81EF19
:101EE6000FF0CA51D96EDA6A060ED926DFB27EEF36
:101EF6000FF080EF0FF081EF0FF0C79ECA51D96E39
:101F0600DA6A060ED926DFA48BEF0FF08DEF0FF0FD
:101F160090EF0FF0C78C9DEF0FF0CA51D96EDA6AB9
:101F2600060ED926DFB49AEF0FF09CEF0FF09DEF67
:101F36000FF0C79CCAC005F0A7EC10F0C68A010EC8
:101F46000001CB6FCB5112003E343F34456E4550F5
:101F5600D8A4B0EF0FF0B2EF0FF0BCEF0FF0000E09
:101F66003C6E000E3D6E000E3E6E000E3F6E29EF7B
:101F760010F03CC040F03DC041F03EC042F03FC0D2
:101F860043F0200ECCEF0FF0D8904332423241326C
:101F96004032E82EC7EF0FF04050446E3E8EFF0EE3
:101FA6003C16FF0E3D16FF0E3E16000E3F16960E11
:101FB600455E45BEE3EF0FF0E1EF0FF0F9EF0FF0EE
:101FC6004550800A970FD8B0EBEF0FF0EDEF0FF00A
:101FD600EFEF0FF0B2EF0FF0D8903F323E323D32C6
:101FE6003C32453EEFEF0FF011EF10F01F0E456447
:101FF600FFEF0FF001EF10F009EF10F0B2EF0FF066
:10200600D8903C363D363E363F3645064550D8A438
:102016000FEF10F011EF10F003EF10F04450D8B4AA
:1020260017EF10F019EF10F021EF10F03F1E3E1ED3
:102036003D1E3C6C000E3D223E223F223CC03CF041
:102046003DC03DF03EC03EF03FC03FF0120046505E
:10205600D96EDA6A040ED926DF500001C96FC65060
:10206600C919F00BC919C66E000E306E000E316E1E
:10207600800E326EBF0E336E4650D96EDA6ADECFF0
:1020860005F0DECF06F0DECF07F0DECF08F0000E5B
:1020960033EC0EF005C017F006C018F007C019F0B3
:1020A60008C01AF0000E136E240E146EF40E156E90
:1020B600490E166E6CEC0CF013C02CF014C02DF00B
:1020C60015C02EF016C02FF00BEC08F02CC03CF01B
:1020D6002DC03DF02EC03EF02FC03FF0A7EC0FF014
:1020E6003C50C86E1200FE0EF66E210EF76E000E04
:1020F600F86E00EEABF010EE1EF00900F5CFEEFF25
:10210600E550E150FAE15A0EF66E220EF76E000E19
:10211600F86E00EE72F010EE0BF00900F5CFEEFF50
:10212600E550E150FAE100EE80F02B0EEE6AE8068B
:10213600FDE100EE47F02B0EEE6AE806FDE10190A8
:1021460001920001C9EF10F09D86A0869E96A19689
:102156000550D96EDA6A090ED926DECF5DF0DDCFDD
:102166005EF00550D96EDA6A0B0ED926DECF5BF02B
:10217600DDCF5CF00550D96EDA6A0D0ED926DECFBA
:102186009AF0DDCF9BF0F28EF28C120054EC11F037
:102196000001A291610EA16F060EA06FA297A295F3
:1021A600A283840EA76F220EA86F000EA96F000EE1
:1021B600AA6F000EA56F000EA66F9C0ECA6F0DECDF
:1021C6000FF0E4EF10F007EF00F09E965B505C1006
:1021D600D8B4F0EF10F0F2EF10F0FEEF10F002D8E6
:1021E600FEEF10F00500FA6E5B50FD6E5C50FE6E61
:1021F600FF6AFA5012001200800F810F820F830FC0
:10220600840F890F8A0F8B0F8C0F8D0F920F930FF0
:10221600940F950F960F0550D96EDA6A040ED926DB
:10222600DF50066EC6500618F00B0618C66E120072
:10223600A1924A50B36E49C0B2FF12009E904C5014
:10224600CF6E4BC0CEFF1200F2944E50D76E4DC0EB
:0F225600D6FF1200685A622A1A622A010101019A
:102266009E9267C0CCFF1200948694881200F2906A
:102276001200F2901200F2901200F2901200682AF8
:102286001200A1961200F0921200F0901200F29243
:1022960012009D981200A19012009E9412009E9C1E
:0822A6001200120012001200E8
:020000040030CA
:0E000000FF02091EFF8181FF0FC00FE00F40BD
:00000001FF
